{
  "_format": "hh-sol-artifact-1",
  "contractName": "Tracking",
  "sourceName": "contracts/Tracking.sol",
  "abi": [
    {
      "inputs": [],
      "stateMutability": "nonpayable",
      "type": "constructor"
    },
    {
      "anonymous": false,
      "inputs": [
        {
          "indexed": true,
          "internalType": "address",
          "name": "sender",
          "type": "address"
        },
        {
          "indexed": true,
          "internalType": "address",
          "name": "receiver",
          "type": "address"
        },
        {
          "indexed": false,
          "internalType": "uint256",
          "name": "deliveryTime",
          "type": "uint256"
        },
        {
          "indexed": false,
          "internalType": "uint256",
          "name": "amount",
          "type": "uint256"
        }
      ],
      "name": "FundCentral",
      "type": "event"
    },
    {
      "anonymous": false,
      "inputs": [
        {
          "indexed": true,
          "internalType": "address",
          "name": "sender",
          "type": "address"
        },
        {
          "indexed": true,
          "internalType": "address",
          "name": "receiver",
          "type": "address"
        },
        {
          "indexed": false,
          "internalType": "uint256",
          "name": "req_date",
          "type": "uint256"
        },
        {
          "indexed": false,
          "internalType": "string",
          "name": "from",
          "type": "string"
        },
        {
          "indexed": false,
          "internalType": "uint256",
          "name": "amount",
          "type": "uint256"
        },
        {
          "indexed": false,
          "internalType": "string",
          "name": "image",
          "type": "string"
        }
      ],
      "name": "FundCreated",
      "type": "event"
    },
    {
      "anonymous": false,
      "inputs": [
        {
          "indexed": true,
          "internalType": "address",
          "name": "sender",
          "type": "address"
        },
        {
          "indexed": true,
          "internalType": "address",
          "name": "receiver",
          "type": "address"
        },
        {
          "indexed": false,
          "internalType": "uint256",
          "name": "amount",
          "type": "uint256"
        }
      ],
      "name": "FundPaid",
      "type": "event"
    },
    {
      "anonymous": false,
      "inputs": [
        {
          "indexed": true,
          "internalType": "address",
          "name": "sender",
          "type": "address"
        },
        {
          "indexed": true,
          "internalType": "address",
          "name": "receiver",
          "type": "address"
        },
        {
          "indexed": false,
          "internalType": "string",
          "name": "feedback",
          "type": "string"
        }
      ],
      "name": "FundRejected",
      "type": "event"
    },
    {
      "anonymous": false,
      "inputs": [
        {
          "indexed": true,
          "internalType": "address",
          "name": "sender",
          "type": "address"
        },
        {
          "indexed": true,
          "internalType": "address",
          "name": "receiver",
          "type": "address"
        },
        {
          "indexed": false,
          "internalType": "uint256",
          "name": "req_date",
          "type": "uint256"
        }
      ],
      "name": "FundState",
      "type": "event"
    },
    {
      "inputs": [
        {
          "internalType": "address",
          "name": "_sender",
          "type": "address"
        },
        {
          "internalType": "address",
          "name": "_receiver",
          "type": "address"
        },
        {
          "internalType": "uint256",
          "name": "_index",
          "type": "uint256"
        },
        {
          "internalType": "string",
          "name": "_feedback",
          "type": "string"
        }
      ],
      "name": "RejectFund",
      "outputs": [],
      "stateMutability": "nonpayable",
      "type": "function"
    },
    {
      "inputs": [
        {
          "internalType": "address",
          "name": "_sender",
          "type": "address"
        },
        {
          "internalType": "address",
          "name": "_receiver",
          "type": "address"
        },
        {
          "internalType": "uint256",
          "name": "_index",
          "type": "uint256"
        },
        {
          "internalType": "uint256",
          "name": "_amount",
          "type": "uint256"
        }
      ],
      "name": "centralFund",
      "outputs": [],
      "stateMutability": "payable",
      "type": "function"
    },
    {
      "inputs": [
        {
          "internalType": "address",
          "name": "_receiver",
          "type": "address"
        },
        {
          "internalType": "uint256",
          "name": "_req_date",
          "type": "uint256"
        },
        {
          "internalType": "string",
          "name": "_from",
          "type": "string"
        },
        {
          "internalType": "uint256",
          "name": "_amount",
          "type": "uint256"
        },
        {
          "internalType": "string",
          "name": "image",
          "type": "string"
        },
        {
          "internalType": "string",
          "name": "feedback",
          "type": "string"
        }
      ],
      "name": "createFund",
      "outputs": [],
      "stateMutability": "nonpayable",
      "type": "function"
    },
    {
      "inputs": [],
      "name": "fundCount",
      "outputs": [
        {
          "internalType": "uint256",
          "name": "",
          "type": "uint256"
        }
      ],
      "stateMutability": "view",
      "type": "function"
    },
    {
      "inputs": [
        {
          "internalType": "address",
          "name": "",
          "type": "address"
        },
        {
          "internalType": "uint256",
          "name": "",
          "type": "uint256"
        }
      ],
      "name": "funds",
      "outputs": [
        {
          "internalType": "address",
          "name": "sender",
          "type": "address"
        },
        {
          "internalType": "address",
          "name": "receiver",
          "type": "address"
        },
        {
          "internalType": "uint256",
          "name": "Req_Date",
          "type": "uint256"
        },
        {
          "internalType": "uint256",
          "name": "deliveryTime",
          "type": "uint256"
        },
        {
          "internalType": "string",
          "name": "from",
          "type": "string"
        },
        {
          "internalType": "uint256",
          "name": "amount",
          "type": "uint256"
        },
        {
          "internalType": "string",
          "name": "image",
          "type": "string"
        },
        {
          "internalType": "enum Tracking.FundStatus",
          "name": "status",
          "type": "uint8"
        },
        {
          "internalType": "bool",
          "name": "isPaid",
          "type": "bool"
        },
        {
          "internalType": "string",
          "name": "feedback",
          "type": "string"
        }
      ],
      "stateMutability": "view",
      "type": "function"
    },
    {
      "inputs": [],
      "name": "getAllTransactions",
      "outputs": [
        {
          "components": [
            {
              "internalType": "address",
              "name": "sender",
              "type": "address"
            },
            {
              "internalType": "address",
              "name": "receiver",
              "type": "address"
            },
            {
              "internalType": "uint256",
              "name": "Req_Date",
              "type": "uint256"
            },
            {
              "internalType": "uint256",
              "name": "deliveryTime",
              "type": "uint256"
            },
            {
              "internalType": "string",
              "name": "from",
              "type": "string"
            },
            {
              "internalType": "uint256",
              "name": "amount",
              "type": "uint256"
            },
            {
              "internalType": "string",
              "name": "image",
              "type": "string"
            },
            {
              "internalType": "enum Tracking.FundStatus",
              "name": "status",
              "type": "uint8"
            },
            {
              "internalType": "bool",
              "name": "isPaid",
              "type": "bool"
            },
            {
              "internalType": "string",
              "name": "feedback",
              "type": "string"
            }
          ],
          "internalType": "struct Tracking.TypeFund[]",
          "name": "",
          "type": "tuple[]"
        }
      ],
      "stateMutability": "view",
      "type": "function"
    },
    {
      "inputs": [
        {
          "internalType": "address",
          "name": "_sender",
          "type": "address"
        },
        {
          "internalType": "uint256",
          "name": "_index",
          "type": "uint256"
        }
      ],
      "name": "getFund",
      "outputs": [
        {
          "internalType": "address",
          "name": "",
          "type": "address"
        },
        {
          "internalType": "address",
          "name": "",
          "type": "address"
        },
        {
          "internalType": "uint256",
          "name": "",
          "type": "uint256"
        },
        {
          "internalType": "uint256",
          "name": "",
          "type": "uint256"
        },
        {
          "internalType": "string",
          "name": "",
          "type": "string"
        },
        {
          "internalType": "uint256",
          "name": "",
          "type": "uint256"
        },
        {
          "internalType": "string",
          "name": "",
          "type": "string"
        },
        {
          "internalType": "string",
          "name": "",
          "type": "string"
        },
        {
          "internalType": "enum Tracking.FundStatus",
          "name": "",
          "type": "uint8"
        },
        {
          "internalType": "bool",
          "name": "",
          "type": "bool"
        }
      ],
      "stateMutability": "view",
      "type": "function"
    },
    {
      "inputs": [
        {
          "internalType": "address",
          "name": "_sender",
          "type": "address"
        }
      ],
      "name": "getFundCount",
      "outputs": [
        {
          "internalType": "uint256",
          "name": "",
          "type": "uint256"
        }
      ],
      "stateMutability": "view",
      "type": "function"
    },
    {
      "inputs": [
        {
          "internalType": "address",
          "name": "_sender",
          "type": "address"
        },
        {
          "internalType": "address",
          "name": "_receiver",
          "type": "address"
        },
        {
          "internalType": "uint256",
          "name": "_index",
          "type": "uint256"
        }
      ],
      "name": "startFund",
      "outputs": [],
      "stateMutability": "nonpayable",
      "type": "function"
    }
  ],
  "bytecode": "0x608060405234801561001057600080fd5b5060006001819055506128ea806100286000396000f3fe6080604052600436106100865760003560e01c806388b22c241161005957806388b22c24146101335780638bd99c4f14610179578063b7748076146101bf578063bcba0a8b146101db578063dceae3e11461020457610086565b806323c8831f1461008b57806327506f53146100b45780633f936ff5146100df578063673e228b1461010a575b600080fd5b34801561009757600080fd5b506100b260048036038101906100ad9190611915565b610241565b005b3480156100c057600080fd5b506100c961049d565b6040516100d69190611c52565b60405180910390f35b3480156100eb57600080fd5b506100f46107d3565b6040516101019190611c83565b60405180910390f35b34801561011657600080fd5b50610131600480360381019061012c9190611dd3565b6107d9565b005b34801561013f57600080fd5b5061015a60048036038101906101559190611eb4565b610c92565b6040516101709a99989796959493929190611f6b565b60405180910390f35b34801561018557600080fd5b506101a0600480360381019061019b9190611eb4565b610ef5565b6040516101b69a9998979695949392919061201c565b60405180910390f35b6101d960048036038101906101d491906120cd565b6111b8565b005b3480156101e757600080fd5b5061020260048036038101906101fd9190612134565b611565565b005b34801561021057600080fd5b5061022b600480360381019061022691906121b7565b611822565b6040516102389190611c83565b60405180910390f35b60008060008573ffffffffffffffffffffffffffffffffffffffff1673ffffffffffffffffffffffffffffffffffffffff1681526020019081526020016000208281548110610293576102926121e4565b5b906000526020600020906009020190506000600283815481106102b9576102b86121e4565b5b906000526020600020906009020190508373ffffffffffffffffffffffffffffffffffffffff168260010160009054906101000a900473ffffffffffffffffffffffffffffffffffffffff1673ffffffffffffffffffffffffffffffffffffffff161461035b576040517f08c379a00000000000000000000000000000000000000000000000000000000081526004016103529061225f565b60405180910390fd5b6000600381111561036f5761036e611a42565b5b8260070160009054906101000a900460ff16600381111561039357610392611a42565b5b146103d3576040517f08c379a00000000000000000000000000000000000000000000000000000000081526004016103ca906122cb565b60405180910390fd5b60018260070160006101000a81548160ff021916908360038111156103fb576103fa611a42565b5b021790555060018160070160006101000a81548160ff0219169083600381111561042857610427611a42565b5b02179055508373ffffffffffffffffffffffffffffffffffffffff168573ffffffffffffffffffffffffffffffffffffffff167fa2a337c4d3e80dbd9789acbbeb59e8b06404f2a140aad5d97d046cc1448b583c846002015460405161048e9190611c83565b60405180910390a35050505050565b60606002805480602002602001604051908101604052809291908181526020016000905b828210156107ca5783829060005260206000209060090201604051806101400160405290816000820160009054906101000a900473ffffffffffffffffffffffffffffffffffffffff1673ffffffffffffffffffffffffffffffffffffffff1673ffffffffffffffffffffffffffffffffffffffff1681526020016001820160009054906101000a900473ffffffffffffffffffffffffffffffffffffffff1673ffffffffffffffffffffffffffffffffffffffff1673ffffffffffffffffffffffffffffffffffffffff16815260200160028201548152602001600382015481526020016004820180546105b59061231a565b80601f01602080910402602001604051908101604052809291908181526020018280546105e19061231a565b801561062e5780601f106106035761010080835404028352916020019161062e565b820191906000526020600020905b81548152906001019060200180831161061157829003601f168201915b50505050508152602001600582015481526020016006820180546106519061231a565b80601f016020809104026020016040519081016040528092919081815260200182805461067d9061231a565b80156106ca5780601f1061069f576101008083540402835291602001916106ca565b820191906000526020600020905b8154815290600101906020018083116106ad57829003601f168201915b505050505081526020016007820160009054906101000a900460ff1660038111156106f8576106f7611a42565b5b600381111561070a57610709611a42565b5b81526020016007820160019054906101000a900460ff161515151581526020016008820180546107399061231a565b80601f01602080910402602001604051908101604052809291908181526020018280546107659061231a565b80156107b25780601f10610787576101008083540402835291602001916107b2565b820191906000526020600020905b81548152906001019060200180831161079557829003601f168201915b505050505081525050815260200190600101906104c1565b50505050905090565b60015481565b60006040518061014001604052803373ffffffffffffffffffffffffffffffffffffffff1681526020018873ffffffffffffffffffffffffffffffffffffffff168152602001878152602001600081526020018681526020018581526020018481526020016000600381111561085257610851611a42565b5b81526020016000151581526020018381525090506000803373ffffffffffffffffffffffffffffffffffffffff1673ffffffffffffffffffffffffffffffffffffffff16815260200190815260200160002081908060018154018082558091505060019003906000526020600020906009020160009091909190915060008201518160000160006101000a81548173ffffffffffffffffffffffffffffffffffffffff021916908373ffffffffffffffffffffffffffffffffffffffff16021790555060208201518160010160006101000a81548173ffffffffffffffffffffffffffffffffffffffff021916908373ffffffffffffffffffffffffffffffffffffffff1602179055506040820151816002015560608201518160030155608082015181600401908161098591906124f7565b5060a0820151816005015560c08201518160060190816109a591906124f7565b5060e08201518160070160006101000a81548160ff021916908360038111156109d1576109d0611a42565b5b02179055506101008201518160070160016101000a81548160ff021916908315150217905550610120820151816008019081610a0d91906124f7565b50505060016000815480929190610a23906125f8565b919050555060026040518061014001604052803373ffffffffffffffffffffffffffffffffffffffff1681526020018973ffffffffffffffffffffffffffffffffffffffff1681526020018881526020016000815260200187815260200186815260200185815260200160006003811115610aa157610aa0611a42565b5b815260200160001515815260200184815250908060018154018082558091505060019003906000526020600020906009020160009091909190915060008201518160000160006101000a81548173ffffffffffffffffffffffffffffffffffffffff021916908373ffffffffffffffffffffffffffffffffffffffff16021790555060208201518160010160006101000a81548173ffffffffffffffffffffffffffffffffffffffff021916908373ffffffffffffffffffffffffffffffffffffffff16021790555060408201518160020155606082015181600301556080820151816004019081610b9391906124f7565b5060a0820151816005015560c0820151816006019081610bb391906124f7565b5060e08201518160070160006101000a81548160ff02191690836003811115610bdf57610bde611a42565b5b02179055506101008201518160070160016101000a81548160ff021916908315150217905550610120820151816008019081610c1b91906124f7565b5050508673ffffffffffffffffffffffffffffffffffffffff163373ffffffffffffffffffffffffffffffffffffffff167fd8fad7ba6011ade446d377162c5e53fad37c95118bac877d08cc5c6f44f68dc688888888604051610c819493929190612640565b60405180910390a350505050505050565b60006020528160005260406000208181548110610cae57600080fd5b9060005260206000209060090201600091509150508060000160009054906101000a900473ffffffffffffffffffffffffffffffffffffffff16908060010160009054906101000a900473ffffffffffffffffffffffffffffffffffffffff1690806002015490806003015490806004018054610d2a9061231a565b80601f0160208091040260200160405190810160405280929190818152602001828054610d569061231a565b8015610da35780601f10610d7857610100808354040283529160200191610da3565b820191906000526020600020905b815481529060010190602001808311610d8657829003601f168201915b505050505090806005015490806006018054610dbe9061231a565b80601f0160208091040260200160405190810160405280929190818152602001828054610dea9061231a565b8015610e375780601f10610e0c57610100808354040283529160200191610e37565b820191906000526020600020905b815481529060010190602001808311610e1a57829003601f168201915b5050505050908060070160009054906101000a900460ff16908060070160019054906101000a900460ff1690806008018054610e729061231a565b80601f0160208091040260200160405190810160405280929190818152602001828054610e9e9061231a565b8015610eeb5780601f10610ec057610100808354040283529160200191610eeb565b820191906000526020600020905b815481529060010190602001808311610ece57829003601f168201915b505050505090508a565b6000806000806060600060608060008060008060008e73ffffffffffffffffffffffffffffffffffffffff1673ffffffffffffffffffffffffffffffffffffffff1681526020019081526020016000208c81548110610f5757610f566121e4565b5b906000526020600020906009020190508060000160009054906101000a900473ffffffffffffffffffffffffffffffffffffffff168160010160009054906101000a900473ffffffffffffffffffffffffffffffffffffffff168260020154836003015484600401856005015486600601876008018860070160009054906101000a900460ff168960070160019054906101000a900460ff16858054610ffc9061231a565b80601f01602080910402602001604051908101604052809291908181526020018280546110289061231a565b80156110755780601f1061104a57610100808354040283529160200191611075565b820191906000526020600020905b81548152906001019060200180831161105857829003601f168201915b505050505095508380546110889061231a565b80601f01602080910402602001604051908101604052809291908181526020018280546110b49061231a565b80156111015780601f106110d657610100808354040283529160200191611101565b820191906000526020600020905b8154815290600101906020018083116110e457829003601f168201915b505050505093508280546111149061231a565b80601f01602080910402602001604051908101604052809291908181526020018280546111409061231a565b801561118d5780601f106111625761010080835404028352916020019161118d565b820191906000526020600020905b81548152906001019060200180831161117057829003601f168201915b505050505092509a509a509a509a509a509a509a509a509a509a50509295989b9194979a5092959850565b60008060008673ffffffffffffffffffffffffffffffffffffffff1673ffffffffffffffffffffffffffffffffffffffff168152602001908152602001600020838154811061120a576112096121e4565b5b906000526020600020906009020190506000600284815481106112305761122f6121e4565b5b90600052602060002090600902019050823414611282576040517f08c379a000000000000000000000000000000000000000000000000000000000815260040161127990612705565b60405180910390fd5b8473ffffffffffffffffffffffffffffffffffffffff168260010160009054906101000a900473ffffffffffffffffffffffffffffffffffffffff1673ffffffffffffffffffffffffffffffffffffffff1614611314576040517f08c379a000000000000000000000000000000000000000000000000000000000815260040161130b9061225f565b60405180910390fd5b60038081111561132757611326611a42565b5b8260070160009054906101000a900460ff16600381111561134b5761134a611a42565b5b0361138b576040517f08c379a000000000000000000000000000000000000000000000000000000000815260040161138290612771565b60405180910390fd5b8160070160019054906101000a900460ff16156113dd576040517f08c379a00000000000000000000000000000000000000000000000000000000081526004016113d4906127dd565b60405180910390fd5b60028260070160006101000a81548160ff0219169083600381111561140557611404611a42565b5b021790555060028160070160006101000a81548160ff0219169083600381111561143257611431611a42565b5b021790555042816003018190555042826003018190555060008260050154905060018360070160016101000a81548160ff02191690831515021790555060018260070160016101000a81548160ff0219169083151502179055508573ffffffffffffffffffffffffffffffffffffffff168773ffffffffffffffffffffffffffffffffffffffff167fda13f4e715c5224a6c4862bc1fa1884faac54aa9c3cfc767cb96003bc37f978d8560030154876040516114ef9291906127fd565b60405180910390a38573ffffffffffffffffffffffffffffffffffffffff168773ffffffffffffffffffffffffffffffffffffffff167fd8d123777154196005388c5581d98b3523416fa17f7a83bf986aad28c8094afa836040516115549190611c83565b60405180910390a350505050505050565b60008060008673ffffffffffffffffffffffffffffffffffffffff1673ffffffffffffffffffffffffffffffffffffffff16815260200190815260200160002083815481106115b7576115b66121e4565b5b906000526020600020906009020190506000600284815481106115dd576115dc6121e4565b5b906000526020600020906009020190508473ffffffffffffffffffffffffffffffffffffffff168260010160009054906101000a900473ffffffffffffffffffffffffffffffffffffffff1673ffffffffffffffffffffffffffffffffffffffff161461167f576040517f08c379a00000000000000000000000000000000000000000000000000000000081526004016116769061225f565b60405180910390fd5b6000600381111561169357611692611a42565b5b8260070160009054906101000a900460ff1660038111156116b7576116b6611a42565b5b14806116f85750600160038111156116d2576116d1611a42565b5b8260070160009054906101000a900460ff1660038111156116f6576116f5611a42565b5b145b611737576040517f08c379a000000000000000000000000000000000000000000000000000000000815260040161172e90612872565b60405180910390fd5b60038260070160006101000a81548160ff0219169083600381111561175f5761175e611a42565b5b021790555060038160070160006101000a81548160ff0219169083600381111561178c5761178b611a42565b5b0217905550828260080190816117a291906124f7565b50828160080190816117b491906124f7565b508473ffffffffffffffffffffffffffffffffffffffff168673ffffffffffffffffffffffffffffffffffffffff167fe96ce72048e73152e503713eeaf9fcd854d0584ebcf1b50536f1860d4e732e1c856040516118129190612892565b60405180910390a3505050505050565b60008060008373ffffffffffffffffffffffffffffffffffffffff1673ffffffffffffffffffffffffffffffffffffffff168152602001908152602001600020805490509050919050565b6000604051905090565b600080fd5b600080fd5b600073ffffffffffffffffffffffffffffffffffffffff82169050919050565b60006118ac82611881565b9050919050565b6118bc816118a1565b81146118c757600080fd5b50565b6000813590506118d9816118b3565b92915050565b6000819050919050565b6118f2816118df565b81146118fd57600080fd5b50565b60008135905061190f816118e9565b92915050565b60008060006060848603121561192e5761192d611877565b5b600061193c868287016118ca565b935050602061194d868287016118ca565b925050604061195e86828701611900565b9150509250925092565b600081519050919050565b600082825260208201905092915050565b6000819050602082019050919050565b61199d816118a1565b82525050565b6119ac816118df565b82525050565b600081519050919050565b600082825260208201905092915050565b60005b838110156119ec5780820151818401526020810190506119d1565b60008484015250505050565b6000601f19601f8301169050919050565b6000611a14826119b2565b611a1e81856119bd565b9350611a2e8185602086016119ce565b611a37816119f8565b840191505092915050565b7f4e487b7100000000000000000000000000000000000000000000000000000000600052602160045260246000fd5b60048110611a8257611a81611a42565b5b50565b6000819050611a9382611a71565b919050565b6000611aa382611a85565b9050919050565b611ab381611a98565b82525050565b60008115159050919050565b611ace81611ab9565b82525050565b600061014083016000830151611aed6000860182611994565b506020830151611b006020860182611994565b506040830151611b1360408601826119a3565b506060830151611b2660608601826119a3565b5060808301518482036080860152611b3e8282611a09565b91505060a0830151611b5360a08601826119a3565b5060c083015184820360c0860152611b6b8282611a09565b91505060e0830151611b8060e0860182611aaa565b50610100830151611b95610100860182611ac5565b50610120830151848203610120860152611baf8282611a09565b9150508091505092915050565b6000611bc88383611ad4565b905092915050565b6000602082019050919050565b6000611be882611968565b611bf28185611973565b935083602082028501611c0485611984565b8060005b85811015611c405784840389528151611c218582611bbc565b9450611c2c83611bd0565b925060208a01995050600181019050611c08565b50829750879550505050505092915050565b60006020820190508181036000830152611c6c8184611bdd565b905092915050565b611c7d816118df565b82525050565b6000602082019050611c986000830184611c74565b92915050565b600080fd5b600080fd5b7f4e487b7100000000000000000000000000000000000000000000000000000000600052604160045260246000fd5b611ce0826119f8565b810181811067ffffffffffffffff82111715611cff57611cfe611ca8565b5b80604052505050565b6000611d1261186d565b9050611d1e8282611cd7565b919050565b600067ffffffffffffffff821115611d3e57611d3d611ca8565b5b611d47826119f8565b9050602081019050919050565b82818337600083830152505050565b6000611d76611d7184611d23565b611d08565b905082815260208101848484011115611d9257611d91611ca3565b5b611d9d848285611d54565b509392505050565b600082601f830112611dba57611db9611c9e565b5b8135611dca848260208601611d63565b91505092915050565b60008060008060008060c08789031215611df057611def611877565b5b6000611dfe89828a016118ca565b9650506020611e0f89828a01611900565b955050604087013567ffffffffffffffff811115611e3057611e2f61187c565b5b611e3c89828a01611da5565b9450506060611e4d89828a01611900565b935050608087013567ffffffffffffffff811115611e6e57611e6d61187c565b5b611e7a89828a01611da5565b92505060a087013567ffffffffffffffff811115611e9b57611e9a61187c565b5b611ea789828a01611da5565b9150509295509295509295565b60008060408385031215611ecb57611eca611877565b5b6000611ed9858286016118ca565b9250506020611eea85828601611900565b9150509250929050565b611efd816118a1565b82525050565b600082825260208201905092915050565b6000611f1f826119b2565b611f298185611f03565b9350611f398185602086016119ce565b611f42816119f8565b840191505092915050565b611f5681611a98565b82525050565b611f6581611ab9565b82525050565b600061014082019050611f81600083018d611ef4565b611f8e602083018c611ef4565b611f9b604083018b611c74565b611fa8606083018a611c74565b8181036080830152611fba8189611f14565b9050611fc960a0830188611c74565b81810360c0830152611fdb8187611f14565b9050611fea60e0830186611f4d565b611ff8610100830185611f5c565b81810361012083015261200b8184611f14565b90509b9a5050505050505050505050565b600061014082019050612032600083018d611ef4565b61203f602083018c611ef4565b61204c604083018b611c74565b612059606083018a611c74565b818103608083015261206b8189611f14565b905061207a60a0830188611c74565b81810360c083015261208c8187611f14565b905081810360e08301526120a08186611f14565b90506120b0610100830185611f4d565b6120be610120830184611f5c565b9b9a5050505050505050505050565b600080600080608085870312156120e7576120e6611877565b5b60006120f5878288016118ca565b9450506020612106878288016118ca565b935050604061211787828801611900565b925050606061212887828801611900565b91505092959194509250565b6000806000806080858703121561214e5761214d611877565b5b600061215c878288016118ca565b945050602061216d878288016118ca565b935050604061217e87828801611900565b925050606085013567ffffffffffffffff81111561219f5761219e61187c565b5b6121ab87828801611da5565b91505092959194509250565b6000602082840312156121cd576121cc611877565b5b60006121db848285016118ca565b91505092915050565b7f4e487b7100000000000000000000000000000000000000000000000000000000600052603260045260246000fd5b7f496e76616c696420726563656976657200000000000000000000000000000000600082015250565b6000612249601083611f03565b915061225482612213565b602082019050919050565b600060208201905081810360008301526122788161223c565b9050919050565b7f46756e6420616c726561647920696e207472616e7369742e0000000000000000600082015250565b60006122b5601883611f03565b91506122c08261227f565b602082019050919050565b600060208201905081810360008301526122e4816122a8565b9050919050565b7f4e487b7100000000000000000000000000000000000000000000000000000000600052602260045260246000fd5b6000600282049050600182168061233257607f821691505b602082108103612345576123446122eb565b5b50919050565b60008190508160005260206000209050919050565b60006020601f8301049050919050565b600082821b905092915050565b6000600883026123ad7fffffffffffffffffffffffffffffffffffffffffffffffffffffffffffffffff82612370565b6123b78683612370565b95508019841693508086168417925050509392505050565b6000819050919050565b60006123f46123ef6123ea846118df565b6123cf565b6118df565b9050919050565b6000819050919050565b61240e836123d9565b61242261241a826123fb565b84845461237d565b825550505050565b600090565b61243761242a565b612442818484612405565b505050565b5b818110156124665761245b60008261242f565b600181019050612448565b5050565b601f8211156124ab5761247c8161234b565b61248584612360565b81016020851015612494578190505b6124a86124a085612360565b830182612447565b50505b505050565b600082821c905092915050565b60006124ce600019846008026124b0565b1980831691505092915050565b60006124e783836124bd565b9150826002028217905092915050565b612500826119b2565b67ffffffffffffffff81111561251957612518611ca8565b5b612523825461231a565b61252e82828561246a565b600060209050601f831160018114612561576000841561254f578287015190505b61255985826124db565b8655506125c1565b601f19841661256f8661234b565b60005b8281101561259757848901518255600182019150602085019450602081019050612572565b868310156125b457848901516125b0601f8916826124bd565b8355505b6001600288020188555050505b505050505050565b7f4e487b7100000000000000000000000000000000000000000000000000000000600052601160045260246000fd5b6000612603826118df565b91507fffffffffffffffffffffffffffffffffffffffffffffffffffffffffffffffff8203612635576126346125c9565b5b600182019050919050565b60006080820190506126556000830187611c74565b81810360208301526126678186611f14565b90506126766040830185611c74565b81810360608301526126888184611f14565b905095945050505050565b7f5061796d656e7420616d6f756e74206d757374206d617463682074686520616d60008201527f6f756e7400000000000000000000000000000000000000000000000000000000602082015250565b60006126ef602483611f03565b91506126fa82612693565b604082019050919050565b6000602082019050818103600083015261271e816126e2565b9050919050565b7f46756e642069732072656a65637465642e000000000000000000000000000000600082015250565b600061275b601183611f03565b915061276682612725565b602082019050919050565b6000602082019050818103600083015261278a8161274e565b9050919050565b7f46756e6420616c72656164792070616964000000000000000000000000000000600082015250565b60006127c7601183611f03565b91506127d282612791565b602082019050919050565b600060208201905081810360008301526127f6816127ba565b9050919050565b60006040820190506128126000830185611c74565b61281f6020830184611c74565b9392505050565b7f46756e6420616c72656164792052656a65637465642e00000000000000000000600082015250565b600061285c601683611f03565b915061286782612826565b602082019050919050565b6000602082019050818103600083015261288b8161284f565b9050919050565b600060208201905081810360008301526128ac8184611f14565b90509291505056fea2646970667358221220c7990d54376f036f0144f592a699e41a980e7843b8c345149b944648f84a360964736f6c63430008110033",
  "linkReferences": {},
  "deployedLinkReferences": {}
}