{
  "_format": "hh-sol-artifact-1",
  "contractName": "Tracking",
  "sourceName": "contracts/Tracking.sol",
  "abi": [
    {
      "inputs": [],
      "stateMutability": "nonpayable",
      "type": "constructor"
    },
    {
      "anonymous": false,
      "inputs": [
        {
          "indexed": true,
          "internalType": "address",
          "name": "sender",
          "type": "address"
        },
        {
          "indexed": true,
          "internalType": "address",
          "name": "receiver",
          "type": "address"
        },
        {
          "indexed": false,
          "internalType": "uint256",
          "name": "pickuptime",
          "type": "uint256"
        },
        {
          "indexed": false,
          "internalType": "uint256",
          "name": "distance",
          "type": "uint256"
        },
        {
          "indexed": false,
          "internalType": "uint256",
          "name": "price",
          "type": "uint256"
        },
        {
          "indexed": false,
          "internalType": "address",
          "name": "image",
          "type": "address"
        }
      ],
      "name": "FundCreated",
      "type": "event"
    },
    {
      "anonymous": false,
      "inputs": [
        {
          "indexed": true,
          "internalType": "address",
          "name": "sender",
          "type": "address"
        },
        {
          "indexed": true,
          "internalType": "address",
          "name": "receiver",
          "type": "address"
        },
        {
          "indexed": false,
          "internalType": "uint256",
          "name": "deliveryTime",
          "type": "uint256"
        }
      ],
      "name": "FundDelivered",
      "type": "event"
    },
    {
      "anonymous": false,
      "inputs": [
        {
          "indexed": true,
          "internalType": "address",
          "name": "sender",
          "type": "address"
        },
        {
          "indexed": true,
          "internalType": "address",
          "name": "receiver",
          "type": "address"
        },
        {
          "indexed": false,
          "internalType": "uint256",
          "name": "pickuptime",
          "type": "uint256"
        }
      ],
      "name": "FundInTransit",
      "type": "event"
    },
    {
      "anonymous": false,
      "inputs": [
        {
          "indexed": true,
          "internalType": "address",
          "name": "sender",
          "type": "address"
        },
        {
          "indexed": true,
          "internalType": "address",
          "name": "receiver",
          "type": "address"
        },
        {
          "indexed": false,
          "internalType": "uint256",
          "name": "amount",
          "type": "uint256"
        }
      ],
      "name": "FundPaid",
      "type": "event"
    },
    {
      "inputs": [
        {
          "internalType": "address",
          "name": "_sender",
          "type": "address"
        },
        {
          "internalType": "address",
          "name": "_receiver",
          "type": "address"
        },
        {
          "internalType": "uint256",
          "name": "_index",
          "type": "uint256"
        }
      ],
      "name": "completeFund",
      "outputs": [],
      "stateMutability": "nonpayable",
      "type": "function"
    },
    {
      "inputs": [
        {
          "internalType": "address",
          "name": "_receiver",
          "type": "address"
        },
        {
          "internalType": "uint256",
          "name": "_pickupTime",
          "type": "uint256"
        },
        {
          "internalType": "uint256",
          "name": "_distance",
          "type": "uint256"
        },
        {
          "internalType": "uint256",
          "name": "_price",
          "type": "uint256"
        },
        {
          "internalType": "address",
          "name": "image",
          "type": "address"
        }
      ],
      "name": "createFund",
      "outputs": [],
      "stateMutability": "nonpayable",
      "type": "function"
    },
    {
      "inputs": [],
      "name": "fundCount",
      "outputs": [
        {
          "internalType": "uint256",
          "name": "",
          "type": "uint256"
        }
      ],
      "stateMutability": "view",
      "type": "function"
    },
    {
      "inputs": [
        {
          "internalType": "address",
          "name": "",
          "type": "address"
        },
        {
          "internalType": "uint256",
          "name": "",
          "type": "uint256"
        }
      ],
      "name": "funds",
      "outputs": [
        {
          "internalType": "address",
          "name": "sender",
          "type": "address"
        },
        {
          "internalType": "address",
          "name": "receiver",
          "type": "address"
        },
        {
          "internalType": "uint256",
          "name": "pickupTime",
          "type": "uint256"
        },
        {
          "internalType": "uint256",
          "name": "deliveryTime",
          "type": "uint256"
        },
        {
          "internalType": "uint256",
          "name": "distance",
          "type": "uint256"
        },
        {
          "internalType": "uint256",
          "name": "price",
          "type": "uint256"
        },
        {
          "internalType": "address",
          "name": "image",
          "type": "address"
        },
        {
          "internalType": "enum Tracking.FundStatus",
          "name": "status",
          "type": "uint8"
        },
        {
          "internalType": "bool",
          "name": "isPaid",
          "type": "bool"
        }
      ],
      "stateMutability": "view",
      "type": "function"
    },
    {
      "inputs": [],
      "name": "getAllTransactions",
      "outputs": [
        {
          "components": [
            {
              "internalType": "address",
              "name": "sender",
              "type": "address"
            },
            {
              "internalType": "address",
              "name": "receiver",
              "type": "address"
            },
            {
              "internalType": "uint256",
              "name": "pickupTime",
              "type": "uint256"
            },
            {
              "internalType": "uint256",
              "name": "deliveryTime",
              "type": "uint256"
            },
            {
              "internalType": "uint256",
              "name": "distance",
              "type": "uint256"
            },
            {
              "internalType": "uint256",
              "name": "price",
              "type": "uint256"
            },
            {
              "internalType": "address",
              "name": "image",
              "type": "address"
            },
            {
              "internalType": "enum Tracking.FundStatus",
              "name": "status",
              "type": "uint8"
            },
            {
              "internalType": "bool",
              "name": "isPaid",
              "type": "bool"
            }
          ],
          "internalType": "struct Tracking.TypeFund[]",
          "name": "",
          "type": "tuple[]"
        }
      ],
      "stateMutability": "view",
      "type": "function"
    },
    {
      "inputs": [
        {
          "internalType": "address",
          "name": "_sender",
          "type": "address"
        },
        {
          "internalType": "uint256",
          "name": "_index",
          "type": "uint256"
        }
      ],
      "name": "getFund",
      "outputs": [
        {
          "internalType": "address",
          "name": "",
          "type": "address"
        },
        {
          "internalType": "address",
          "name": "",
          "type": "address"
        },
        {
          "internalType": "uint256",
          "name": "",
          "type": "uint256"
        },
        {
          "internalType": "uint256",
          "name": "",
          "type": "uint256"
        },
        {
          "internalType": "uint256",
          "name": "",
          "type": "uint256"
        },
        {
          "internalType": "uint256",
          "name": "",
          "type": "uint256"
        },
        {
          "internalType": "enum Tracking.FundStatus",
          "name": "",
          "type": "uint8"
        },
        {
          "internalType": "bool",
          "name": "",
          "type": "bool"
        }
      ],
      "stateMutability": "view",
      "type": "function"
    },
    {
      "inputs": [
        {
          "internalType": "address",
          "name": "_sender",
          "type": "address"
        }
      ],
      "name": "getFundCount",
      "outputs": [
        {
          "internalType": "uint256",
          "name": "",
          "type": "uint256"
        }
      ],
      "stateMutability": "view",
      "type": "function"
    },
    {
      "inputs": [
        {
          "internalType": "address",
          "name": "_sender",
          "type": "address"
        },
        {
          "internalType": "address",
          "name": "_receiver",
          "type": "address"
        },
        {
          "internalType": "uint256",
          "name": "_index",
          "type": "uint256"
        }
      ],
      "name": "startFund",
      "outputs": [],
      "stateMutability": "nonpayable",
      "type": "function"
    }
  ],
  "bytecode": "0x608060405234801561001057600080fd5b506000600181905550611955806100286000396000f3fe608060405234801561001057600080fd5b50600436106100885760003560e01c806388b22c241161005b57806388b22c24146101015780638bd99c4f14610139578063b57e09ce14610170578063dceae3e11461018c57610088565b806323c8831f1461008d57806327506f53146100a95780633ade3faa146100c75780633f936ff5146100e3575b600080fd5b6100a760048036038101906100a2919061119d565b6101bc565b005b6100b1610418565b6040516100be9190611407565b60405180910390f35b6100e160048036038101906100dc919061119d565b6105f8565b005b6100eb6109cc565b6040516100f89190611438565b60405180910390f35b61011b60048036038101906101169190611453565b6109d2565b604051610130999897969594939291906114c0565b60405180910390f35b610153600480360381019061014e9190611453565b610ab7565b60405161016798979695949392919061154d565b60405180910390f35b61018a600480360381019061018591906115cb565b610bc5565b005b6101a660048036038101906101a19190611646565b6110b9565b6040516101b39190611438565b60405180910390f35b60008060008573ffffffffffffffffffffffffffffffffffffffff1673ffffffffffffffffffffffffffffffffffffffff168152602001908152602001600020828154811061020e5761020d611673565b5b9060005260206000209060070201905060006002838154811061023457610233611673565b5b906000526020600020906007020190508373ffffffffffffffffffffffffffffffffffffffff168260010160009054906101000a900473ffffffffffffffffffffffffffffffffffffffff1673ffffffffffffffffffffffffffffffffffffffff16146102d6576040517f08c379a00000000000000000000000000000000000000000000000000000000081526004016102cd906116ff565b60405180910390fd5b600060028111156102ea576102e961123a565b5b8260060160149054906101000a900460ff16600281111561030e5761030d61123a565b5b1461034e576040517f08c379a00000000000000000000000000000000000000000000000000000000081526004016103459061176b565b60405180910390fd5b60018260060160146101000a81548160ff021916908360028111156103765761037561123a565b5b021790555060018160060160146101000a81548160ff021916908360028111156103a3576103a261123a565b5b02179055508373ffffffffffffffffffffffffffffffffffffffff168573ffffffffffffffffffffffffffffffffffffffff167fd87edb37e1ddf62aa958d3ee69219f9172867c37d38cc460c3eacf14019b404784600201546040516104099190611438565b60405180910390a35050505050565b60606002805480602002602001604051908101604052809291908181526020016000905b828210156105ef5783829060005260206000209060070201604051806101200160405290816000820160009054906101000a900473ffffffffffffffffffffffffffffffffffffffff1673ffffffffffffffffffffffffffffffffffffffff1673ffffffffffffffffffffffffffffffffffffffff1681526020016001820160009054906101000a900473ffffffffffffffffffffffffffffffffffffffff1673ffffffffffffffffffffffffffffffffffffffff1673ffffffffffffffffffffffffffffffffffffffff168152602001600282015481526020016003820154815260200160048201548152602001600582015481526020016006820160009054906101000a900473ffffffffffffffffffffffffffffffffffffffff1673ffffffffffffffffffffffffffffffffffffffff1673ffffffffffffffffffffffffffffffffffffffff1681526020016006820160149054906101000a900460ff1660028111156105af576105ae61123a565b5b60028111156105c1576105c061123a565b5b81526020016006820160159054906101000a900460ff1615151515815250508152602001906001019061043c565b50505050905090565b60008060008573ffffffffffffffffffffffffffffffffffffffff1673ffffffffffffffffffffffffffffffffffffffff168152602001908152602001600020828154811061064a57610649611673565b5b906000526020600020906007020190506000600283815481106106705761066f611673565b5b906000526020600020906007020190508373ffffffffffffffffffffffffffffffffffffffff168260010160009054906101000a900473ffffffffffffffffffffffffffffffffffffffff1673ffffffffffffffffffffffffffffffffffffffff1614610712576040517f08c379a0000000000000000000000000000000000000000000000000000000008152600401610709906116ff565b60405180910390fd5b600160028111156107265761072561123a565b5b8260060160149054906101000a900460ff16600281111561074a5761074961123a565b5b1461078a576040517f08c379a0000000000000000000000000000000000000000000000000000000008152600401610781906117d7565b60405180910390fd5b8160060160159054906101000a900460ff16156107dc576040517f08c379a00000000000000000000000000000000000000000000000000000000081526004016107d390611843565b60405180910390fd5b60028260060160146101000a81548160ff021916908360028111156108045761080361123a565b5b021790555060028160060160146101000a81548160ff021916908360028111156108315761083061123a565b5b02179055504281600301819055504282600301819055506000826005015490508260000160009054906101000a900473ffffffffffffffffffffffffffffffffffffffff1673ffffffffffffffffffffffffffffffffffffffff166108fc829081150290604051600060405180830381858888f193505050501580156108bb573d6000803e3d6000fd5b5060018360060160156101000a81548160ff02191690831515021790555060018260060160156101000a81548160ff0219169083151502179055508473ffffffffffffffffffffffffffffffffffffffff168673ffffffffffffffffffffffffffffffffffffffff167f406690381ece4bf2840035eb41d4b354b009993f874882ae1b9b4e37e1bc7cd485600301546040516109579190611438565b60405180910390a38473ffffffffffffffffffffffffffffffffffffffff168673ffffffffffffffffffffffffffffffffffffffff167fd8d123777154196005388c5581d98b3523416fa17f7a83bf986aad28c8094afa836040516109bc9190611438565b60405180910390a3505050505050565b60015481565b600060205281600052604060002081815481106109ee57600080fd5b9060005260206000209060070201600091509150508060000160009054906101000a900473ffffffffffffffffffffffffffffffffffffffff16908060010160009054906101000a900473ffffffffffffffffffffffffffffffffffffffff16908060020154908060030154908060040154908060050154908060060160009054906101000a900473ffffffffffffffffffffffffffffffffffffffff16908060060160149054906101000a900460ff16908060060160159054906101000a900460ff16905089565b60008060008060008060008060008060008c73ffffffffffffffffffffffffffffffffffffffff1673ffffffffffffffffffffffffffffffffffffffff1681526020019081526020016000208a81548110610b1557610b14611673565b5b906000526020600020906007020190508060000160009054906101000a900473ffffffffffffffffffffffffffffffffffffffff168160010160009054906101000a900473ffffffffffffffffffffffffffffffffffffffff1682600201548360030154846004015485600501548660060160149054906101000a900460ff168760060160159054906101000a900460ff1698509850985098509850985098509850509295985092959890939650565b60006040518061012001604052803373ffffffffffffffffffffffffffffffffffffffff1681526020018773ffffffffffffffffffffffffffffffffffffffff168152602001868152602001600081526020018581526020018481526020018373ffffffffffffffffffffffffffffffffffffffff16815260200160006002811115610c5457610c5361123a565b5b81526020016000151581525090506000803373ffffffffffffffffffffffffffffffffffffffff1673ffffffffffffffffffffffffffffffffffffffff16815260200190815260200160002081908060018154018082558091505060019003906000526020600020906007020160009091909190915060008201518160000160006101000a81548173ffffffffffffffffffffffffffffffffffffffff021916908373ffffffffffffffffffffffffffffffffffffffff16021790555060208201518160010160006101000a81548173ffffffffffffffffffffffffffffffffffffffff021916908373ffffffffffffffffffffffffffffffffffffffff16021790555060408201518160020155606082015181600301556080820151816004015560a0820151816005015560c08201518160060160006101000a81548173ffffffffffffffffffffffffffffffffffffffff021916908373ffffffffffffffffffffffffffffffffffffffff16021790555060e08201518160060160146101000a81548160ff02191690836002811115610df257610df161123a565b5b02179055506101008201518160060160156101000a81548160ff021916908315150217905550505060016000815480929190610e2d90611892565b919050555060026040518061012001604052803373ffffffffffffffffffffffffffffffffffffffff1681526020018873ffffffffffffffffffffffffffffffffffffffff168152602001878152602001600081526020018681526020018581526020018473ffffffffffffffffffffffffffffffffffffffff16815260200160006002811115610ec157610ec061123a565b5b815260200160001515815250908060018154018082558091505060019003906000526020600020906007020160009091909190915060008201518160000160006101000a81548173ffffffffffffffffffffffffffffffffffffffff021916908373ffffffffffffffffffffffffffffffffffffffff16021790555060208201518160010160006101000a81548173ffffffffffffffffffffffffffffffffffffffff021916908373ffffffffffffffffffffffffffffffffffffffff16021790555060408201518160020155606082015181600301556080820151816004015560a0820151816005015560c08201518160060160006101000a81548173ffffffffffffffffffffffffffffffffffffffff021916908373ffffffffffffffffffffffffffffffffffffffff16021790555060e08201518160060160146101000a81548160ff0219169083600281111561101e5761101d61123a565b5b02179055506101008201518160060160156101000a81548160ff02191690831515021790555050508573ffffffffffffffffffffffffffffffffffffffff163373ffffffffffffffffffffffffffffffffffffffff167f76121360b242e943287c5ce41490aa4e8e0db48d573759cd05e4e0957a5da22e878787876040516110a994939291906118da565b60405180910390a3505050505050565b60008060008373ffffffffffffffffffffffffffffffffffffffff1673ffffffffffffffffffffffffffffffffffffffff168152602001908152602001600020805490509050919050565b600080fd5b600073ffffffffffffffffffffffffffffffffffffffff82169050919050565b600061113482611109565b9050919050565b61114481611129565b811461114f57600080fd5b50565b6000813590506111618161113b565b92915050565b6000819050919050565b61117a81611167565b811461118557600080fd5b50565b60008135905061119781611171565b92915050565b6000806000606084860312156111b6576111b5611104565b5b60006111c486828701611152565b93505060206111d586828701611152565b92505060406111e686828701611188565b9150509250925092565b600081519050919050565b600082825260208201905092915050565b6000819050602082019050919050565b61122581611129565b82525050565b61123481611167565b82525050565b7f4e487b7100000000000000000000000000000000000000000000000000000000600052602160045260246000fd5b6003811061127a5761127961123a565b5b50565b600081905061128b82611269565b919050565b600061129b8261127d565b9050919050565b6112ab81611290565b82525050565b60008115159050919050565b6112c6816112b1565b82525050565b610120820160008201516112e3600085018261121c565b5060208201516112f6602085018261121c565b506040820151611309604085018261122b565b50606082015161131c606085018261122b565b50608082015161132f608085018261122b565b5060a082015161134260a085018261122b565b5060c082015161135560c085018261121c565b5060e082015161136860e08501826112a2565b5061010082015161137d6101008501826112bd565b50505050565b600061138f83836112cc565b6101208301905092915050565b6000602082019050919050565b60006113b4826111f0565b6113be81856111fb565b93506113c98361120c565b8060005b838110156113fa5781516113e18882611383565b97506113ec8361139c565b9250506001810190506113cd565b5085935050505092915050565b6000602082019050818103600083015261142181846113a9565b905092915050565b61143281611167565b82525050565b600060208201905061144d6000830184611429565b92915050565b6000806040838503121561146a57611469611104565b5b600061147885828601611152565b925050602061148985828601611188565b9150509250929050565b61149c81611129565b82525050565b6114ab81611290565b82525050565b6114ba816112b1565b82525050565b6000610120820190506114d6600083018c611493565b6114e3602083018b611493565b6114f0604083018a611429565b6114fd6060830189611429565b61150a6080830188611429565b61151760a0830187611429565b61152460c0830186611493565b61153160e08301856114a2565b61153f6101008301846114b1565b9a9950505050505050505050565b600061010082019050611563600083018b611493565b611570602083018a611493565b61157d6040830189611429565b61158a6060830188611429565b6115976080830187611429565b6115a460a0830186611429565b6115b160c08301856114a2565b6115be60e08301846114b1565b9998505050505050505050565b600080600080600060a086880312156115e7576115e6611104565b5b60006115f588828901611152565b955050602061160688828901611188565b945050604061161788828901611188565b935050606061162888828901611188565b925050608061163988828901611152565b9150509295509295909350565b60006020828403121561165c5761165b611104565b5b600061166a84828501611152565b91505092915050565b7f4e487b7100000000000000000000000000000000000000000000000000000000600052603260045260246000fd5b600082825260208201905092915050565b7f496e76616c696420726563656976657200000000000000000000000000000000600082015250565b60006116e96010836116a2565b91506116f4826116b3565b602082019050919050565b60006020820190508181036000830152611718816116dc565b9050919050565b7f46756e6420616c726561647920696e207472616e7369742e0000000000000000600082015250565b60006117556018836116a2565b91506117608261171f565b602082019050919050565b6000602082019050818103600083015261178481611748565b9050919050565b7f46756e64206e6f7420696e207472616e7369742e000000000000000000000000600082015250565b60006117c16014836116a2565b91506117cc8261178b565b602082019050919050565b600060208201905081810360008301526117f0816117b4565b9050919050565b7f46756e6420616c72656164792070616964000000000000000000000000000000600082015250565b600061182d6011836116a2565b9150611838826117f7565b602082019050919050565b6000602082019050818103600083015261185c81611820565b9050919050565b7f4e487b7100000000000000000000000000000000000000000000000000000000600052601160045260246000fd5b600061189d82611167565b91507fffffffffffffffffffffffffffffffffffffffffffffffffffffffffffffffff82036118cf576118ce611863565b5b600182019050919050565b60006080820190506118ef6000830187611429565b6118fc6020830186611429565b6119096040830185611429565b6119166060830184611493565b9594505050505056fea2646970667358221220128ecfeb9faf8a71f8c6c862a01b62fb69b150be14885eb0b60344668473832764736f6c63430008110033",
  "linkReferences": {},
  "deployedLinkReferences": {}
}