{
  "_format": "hh-sol-artifact-1",
  "contractName": "Tracking",
  "sourceName": "contracts/Tracking.sol",
  "abi": [
    {
      "inputs": [],
      "stateMutability": "nonpayable",
      "type": "constructor"
    },
    {
      "anonymous": false,
      "inputs": [
        {
          "indexed": true,
          "internalType": "address",
          "name": "sender",
          "type": "address"
        },
        {
          "indexed": true,
          "internalType": "address",
          "name": "receiver",
          "type": "address"
        },
        {
          "indexed": false,
          "internalType": "uint256",
          "name": "deliveryTime",
          "type": "uint256"
        },
        {
          "indexed": false,
          "internalType": "uint256",
          "name": "price",
          "type": "uint256"
        }
      ],
      "name": "FundCentral",
      "type": "event"
    },
    {
      "anonymous": false,
      "inputs": [
        {
          "indexed": true,
          "internalType": "address",
          "name": "sender",
          "type": "address"
        },
        {
          "indexed": true,
          "internalType": "address",
          "name": "receiver",
          "type": "address"
        },
        {
          "indexed": false,
          "internalType": "uint256",
          "name": "pickuptime",
          "type": "uint256"
        },
        {
          "indexed": false,
          "internalType": "uint256",
          "name": "distance",
          "type": "uint256"
        },
        {
          "indexed": false,
          "internalType": "uint256",
          "name": "price",
          "type": "uint256"
        },
        {
          "indexed": false,
          "internalType": "string",
          "name": "image",
          "type": "string"
        }
      ],
      "name": "FundCreated",
      "type": "event"
    },
    {
      "anonymous": false,
      "inputs": [
        {
          "indexed": true,
          "internalType": "address",
          "name": "sender",
          "type": "address"
        },
        {
          "indexed": true,
          "internalType": "address",
          "name": "receiver",
          "type": "address"
        },
        {
          "indexed": false,
          "internalType": "uint256",
          "name": "amount",
          "type": "uint256"
        }
      ],
      "name": "FundPaid",
      "type": "event"
    },
    {
      "anonymous": false,
      "inputs": [
        {
          "indexed": true,
          "internalType": "address",
          "name": "sender",
          "type": "address"
        },
        {
          "indexed": true,
          "internalType": "address",
          "name": "receiver",
          "type": "address"
        },
        {
          "indexed": false,
          "internalType": "string",
          "name": "feedback",
          "type": "string"
        }
      ],
      "name": "FundRejected",
      "type": "event"
    },
    {
      "anonymous": false,
      "inputs": [
        {
          "indexed": true,
          "internalType": "address",
          "name": "sender",
          "type": "address"
        },
        {
          "indexed": true,
          "internalType": "address",
          "name": "receiver",
          "type": "address"
        },
        {
          "indexed": false,
          "internalType": "uint256",
          "name": "pickuptime",
          "type": "uint256"
        }
      ],
      "name": "FundState",
      "type": "event"
    },
    {
      "inputs": [
        {
          "internalType": "address",
          "name": "_sender",
          "type": "address"
        },
        {
          "internalType": "address",
          "name": "_receiver",
          "type": "address"
        },
        {
          "internalType": "uint256",
          "name": "_index",
          "type": "uint256"
        },
        {
          "internalType": "string",
          "name": "_feedback",
          "type": "string"
        }
      ],
      "name": "RejectFund",
      "outputs": [],
      "stateMutability": "nonpayable",
      "type": "function"
    },
    {
      "inputs": [
        {
          "internalType": "address",
          "name": "_sender",
          "type": "address"
        },
        {
          "internalType": "address",
          "name": "_receiver",
          "type": "address"
        },
        {
          "internalType": "uint256",
          "name": "_index",
          "type": "uint256"
        },
        {
          "internalType": "uint256",
          "name": "_price",
          "type": "uint256"
        }
      ],
      "name": "centralFund",
      "outputs": [],
      "stateMutability": "payable",
      "type": "function"
    },
    {
      "inputs": [
        {
          "internalType": "address",
          "name": "_receiver",
          "type": "address"
        },
        {
          "internalType": "uint256",
          "name": "_pickupTime",
          "type": "uint256"
        },
        {
          "internalType": "uint256",
          "name": "_distance",
          "type": "uint256"
        },
        {
          "internalType": "uint256",
          "name": "_price",
          "type": "uint256"
        },
        {
          "internalType": "string",
          "name": "image",
          "type": "string"
        },
        {
          "internalType": "string",
          "name": "feedback",
          "type": "string"
        }
      ],
      "name": "createFund",
      "outputs": [],
      "stateMutability": "nonpayable",
      "type": "function"
    },
    {
      "inputs": [],
      "name": "fundCount",
      "outputs": [
        {
          "internalType": "uint256",
          "name": "",
          "type": "uint256"
        }
      ],
      "stateMutability": "view",
      "type": "function"
    },
    {
      "inputs": [
        {
          "internalType": "address",
          "name": "",
          "type": "address"
        },
        {
          "internalType": "uint256",
          "name": "",
          "type": "uint256"
        }
      ],
      "name": "funds",
      "outputs": [
        {
          "internalType": "address",
          "name": "sender",
          "type": "address"
        },
        {
          "internalType": "address",
          "name": "receiver",
          "type": "address"
        },
        {
          "internalType": "uint256",
          "name": "pickupTime",
          "type": "uint256"
        },
        {
          "internalType": "uint256",
          "name": "deliveryTime",
          "type": "uint256"
        },
        {
          "internalType": "uint256",
          "name": "distance",
          "type": "uint256"
        },
        {
          "internalType": "uint256",
          "name": "price",
          "type": "uint256"
        },
        {
          "internalType": "string",
          "name": "image",
          "type": "string"
        },
        {
          "internalType": "enum Tracking.FundStatus",
          "name": "status",
          "type": "uint8"
        },
        {
          "internalType": "bool",
          "name": "isPaid",
          "type": "bool"
        },
        {
          "internalType": "string",
          "name": "feedback",
          "type": "string"
        }
      ],
      "stateMutability": "view",
      "type": "function"
    },
    {
      "inputs": [],
      "name": "getAllTransactions",
      "outputs": [
        {
          "components": [
            {
              "internalType": "address",
              "name": "sender",
              "type": "address"
            },
            {
              "internalType": "address",
              "name": "receiver",
              "type": "address"
            },
            {
              "internalType": "uint256",
              "name": "pickupTime",
              "type": "uint256"
            },
            {
              "internalType": "uint256",
              "name": "deliveryTime",
              "type": "uint256"
            },
            {
              "internalType": "uint256",
              "name": "distance",
              "type": "uint256"
            },
            {
              "internalType": "uint256",
              "name": "price",
              "type": "uint256"
            },
            {
              "internalType": "string",
              "name": "image",
              "type": "string"
            },
            {
              "internalType": "enum Tracking.FundStatus",
              "name": "status",
              "type": "uint8"
            },
            {
              "internalType": "bool",
              "name": "isPaid",
              "type": "bool"
            },
            {
              "internalType": "string",
              "name": "feedback",
              "type": "string"
            }
          ],
          "internalType": "struct Tracking.TypeFund[]",
          "name": "",
          "type": "tuple[]"
        }
      ],
      "stateMutability": "view",
      "type": "function"
    },
    {
      "inputs": [
        {
          "internalType": "address",
          "name": "_sender",
          "type": "address"
        },
        {
          "internalType": "uint256",
          "name": "_index",
          "type": "uint256"
        }
      ],
      "name": "getFund",
      "outputs": [
        {
          "internalType": "address",
          "name": "",
          "type": "address"
        },
        {
          "internalType": "address",
          "name": "",
          "type": "address"
        },
        {
          "internalType": "uint256",
          "name": "",
          "type": "uint256"
        },
        {
          "internalType": "uint256",
          "name": "",
          "type": "uint256"
        },
        {
          "internalType": "uint256",
          "name": "",
          "type": "uint256"
        },
        {
          "internalType": "uint256",
          "name": "",
          "type": "uint256"
        },
        {
          "internalType": "string",
          "name": "",
          "type": "string"
        },
        {
          "internalType": "string",
          "name": "",
          "type": "string"
        },
        {
          "internalType": "enum Tracking.FundStatus",
          "name": "",
          "type": "uint8"
        },
        {
          "internalType": "bool",
          "name": "",
          "type": "bool"
        }
      ],
      "stateMutability": "view",
      "type": "function"
    },
    {
      "inputs": [
        {
          "internalType": "address",
          "name": "_sender",
          "type": "address"
        }
      ],
      "name": "getFundCount",
      "outputs": [
        {
          "internalType": "uint256",
          "name": "",
          "type": "uint256"
        }
      ],
      "stateMutability": "view",
      "type": "function"
    },
    {
      "inputs": [
        {
          "internalType": "address",
          "name": "_sender",
          "type": "address"
        },
        {
          "internalType": "address",
          "name": "_receiver",
          "type": "address"
        },
        {
          "internalType": "uint256",
          "name": "_index",
          "type": "uint256"
        }
      ],
      "name": "startFund",
      "outputs": [],
      "stateMutability": "nonpayable",
      "type": "function"
    }
  ],
  "bytecode": "0x608060405234801561001057600080fd5b5060006001819055506126fd806100286000396000f3fe6080604052600436106100855760003560e01c806388b22c241161005957806388b22c24146101325780638bd99c4f14610178578063b7748076146101be578063bcba0a8b146101da578063dceae3e11461020357610085565b80627b33341461008a57806323c8831f146100b357806327506f53146100dc5780633f936ff514610107575b600080fd5b34801561009657600080fd5b506100b160048036038101906100ac91906118a6565b610240565b005b3480156100bf57600080fd5b506100da60048036038101906100d5919061196b565b6106e1565b005b3480156100e857600080fd5b506100f161093d565b6040516100fe9190611c90565b60405180910390f35b34801561011357600080fd5b5061011c610beb565b6040516101299190611cc1565b60405180910390f35b34801561013e57600080fd5b5061015960048036038101906101549190611cdc565b610bf1565b60405161016f9a99989796959493929190611d93565b60405180910390f35b34801561018457600080fd5b5061019f600480360381019061019a9190611cdc565b610dcc565b6040516101b59a99989796959493929190611e3d565b60405180910390f35b6101d860048036038101906101d39190611ee7565b611003565b005b3480156101e657600080fd5b5061020160048036038101906101fc9190611f4e565b6113b0565b005b34801561020f57600080fd5b5061022a60048036038101906102259190611fd1565b61166d565b6040516102379190611cc1565b60405180910390f35b60006040518061014001604052803373ffffffffffffffffffffffffffffffffffffffff1681526020018873ffffffffffffffffffffffffffffffffffffffff16815260200187815260200160008152602001868152602001858152602001848152602001600060038111156102b9576102b8611a87565b5b81526020016000151581526020018381525090506000803373ffffffffffffffffffffffffffffffffffffffff1673ffffffffffffffffffffffffffffffffffffffff16815260200190815260200160002081908060018154018082558091505060019003906000526020600020906009020160009091909190915060008201518160000160006101000a81548173ffffffffffffffffffffffffffffffffffffffff021916908373ffffffffffffffffffffffffffffffffffffffff16021790555060208201518160010160006101000a81548173ffffffffffffffffffffffffffffffffffffffff021916908373ffffffffffffffffffffffffffffffffffffffff16021790555060408201518160020155606082015181600301556080820151816004015560a0820151816005015560c0820151816006019081610400919061220a565b5060e08201518160070160006101000a81548160ff0219169083600381111561042c5761042b611a87565b5b02179055506101008201518160070160016101000a81548160ff021916908315150217905550610120820151816008019081610468919061220a565b5050506001600081548092919061047e9061230b565b919050555060026040518061014001604052803373ffffffffffffffffffffffffffffffffffffffff1681526020018973ffffffffffffffffffffffffffffffffffffffff16815260200188815260200160008152602001878152602001868152602001858152602001600060038111156104fc576104fb611a87565b5b815260200160001515815260200184815250908060018154018082558091505060019003906000526020600020906009020160009091909190915060008201518160000160006101000a81548173ffffffffffffffffffffffffffffffffffffffff021916908373ffffffffffffffffffffffffffffffffffffffff16021790555060208201518160010160006101000a81548173ffffffffffffffffffffffffffffffffffffffff021916908373ffffffffffffffffffffffffffffffffffffffff16021790555060408201518160020155606082015181600301556080820151816004015560a0820151816005015560c0820151816006019081610602919061220a565b5060e08201518160070160006101000a81548160ff0219169083600381111561062e5761062d611a87565b5b02179055506101008201518160070160016101000a81548160ff02191690831515021790555061012082015181600801908161066a919061220a565b5050508673ffffffffffffffffffffffffffffffffffffffff163373ffffffffffffffffffffffffffffffffffffffff167f1c467b70785e5fd57ac94b7e02744b9a2854a1e07d295843be9b2968f15c1046888888886040516106d09493929190612353565b60405180910390a350505050505050565b60008060008573ffffffffffffffffffffffffffffffffffffffff1673ffffffffffffffffffffffffffffffffffffffff16815260200190815260200160002082815481106107335761073261239f565b5b906000526020600020906009020190506000600283815481106107595761075861239f565b5b906000526020600020906009020190508373ffffffffffffffffffffffffffffffffffffffff168260010160009054906101000a900473ffffffffffffffffffffffffffffffffffffffff1673ffffffffffffffffffffffffffffffffffffffff16146107fb576040517f08c379a00000000000000000000000000000000000000000000000000000000081526004016107f29061241a565b60405180910390fd5b6000600381111561080f5761080e611a87565b5b8260070160009054906101000a900460ff16600381111561083357610832611a87565b5b14610873576040517f08c379a000000000000000000000000000000000000000000000000000000000815260040161086a90612486565b60405180910390fd5b60018260070160006101000a81548160ff0219169083600381111561089b5761089a611a87565b5b021790555060018160070160006101000a81548160ff021916908360038111156108c8576108c7611a87565b5b02179055508373ffffffffffffffffffffffffffffffffffffffff168573ffffffffffffffffffffffffffffffffffffffff167fa2a337c4d3e80dbd9789acbbeb59e8b06404f2a140aad5d97d046cc1448b583c846002015460405161092e9190611cc1565b60405180910390a35050505050565b60606002805480602002602001604051908101604052809291908181526020016000905b82821015610be25783829060005260206000209060090201604051806101400160405290816000820160009054906101000a900473ffffffffffffffffffffffffffffffffffffffff1673ffffffffffffffffffffffffffffffffffffffff1673ffffffffffffffffffffffffffffffffffffffff1681526020016001820160009054906101000a900473ffffffffffffffffffffffffffffffffffffffff1673ffffffffffffffffffffffffffffffffffffffff1673ffffffffffffffffffffffffffffffffffffffff16815260200160028201548152602001600382015481526020016004820154815260200160058201548152602001600682018054610a699061202d565b80601f0160208091040260200160405190810160405280929190818152602001828054610a959061202d565b8015610ae25780601f10610ab757610100808354040283529160200191610ae2565b820191906000526020600020905b815481529060010190602001808311610ac557829003601f168201915b505050505081526020016007820160009054906101000a900460ff166003811115610b1057610b0f611a87565b5b6003811115610b2257610b21611a87565b5b81526020016007820160019054906101000a900460ff16151515158152602001600882018054610b519061202d565b80601f0160208091040260200160405190810160405280929190818152602001828054610b7d9061202d565b8015610bca5780601f10610b9f57610100808354040283529160200191610bca565b820191906000526020600020905b815481529060010190602001808311610bad57829003601f168201915b50505050508152505081526020019060010190610961565b50505050905090565b60015481565b60006020528160005260406000208181548110610c0d57600080fd5b9060005260206000209060090201600091509150508060000160009054906101000a900473ffffffffffffffffffffffffffffffffffffffff16908060010160009054906101000a900473ffffffffffffffffffffffffffffffffffffffff1690806002015490806003015490806004015490806005015490806006018054610c959061202d565b80601f0160208091040260200160405190810160405280929190818152602001828054610cc19061202d565b8015610d0e5780601f10610ce357610100808354040283529160200191610d0e565b820191906000526020600020905b815481529060010190602001808311610cf157829003601f168201915b5050505050908060070160009054906101000a900460ff16908060070160019054906101000a900460ff1690806008018054610d499061202d565b80601f0160208091040260200160405190810160405280929190818152602001828054610d759061202d565b8015610dc25780601f10610d9757610100808354040283529160200191610dc2565b820191906000526020600020905b815481529060010190602001808311610da557829003601f168201915b505050505090508a565b60008060008060008060608060008060008060008e73ffffffffffffffffffffffffffffffffffffffff1673ffffffffffffffffffffffffffffffffffffffff1681526020019081526020016000208c81548110610e2d57610e2c61239f565b5b906000526020600020906009020190508060000160009054906101000a900473ffffffffffffffffffffffffffffffffffffffff168160010160009054906101000a900473ffffffffffffffffffffffffffffffffffffffff16826002015483600301548460040154856005015486600601876008018860070160009054906101000a900460ff168960070160019054906101000a900460ff16838054610ed39061202d565b80601f0160208091040260200160405190810160405280929190818152602001828054610eff9061202d565b8015610f4c5780601f10610f2157610100808354040283529160200191610f4c565b820191906000526020600020905b815481529060010190602001808311610f2f57829003601f168201915b50505050509350828054610f5f9061202d565b80601f0160208091040260200160405190810160405280929190818152602001828054610f8b9061202d565b8015610fd85780601f10610fad57610100808354040283529160200191610fd8565b820191906000526020600020905b815481529060010190602001808311610fbb57829003601f168201915b505050505092509a509a509a509a509a509a509a509a509a509a50509295989b9194979a5092959850565b60008060008673ffffffffffffffffffffffffffffffffffffffff1673ffffffffffffffffffffffffffffffffffffffff16815260200190815260200160002083815481106110555761105461239f565b5b9060005260206000209060090201905060006002848154811061107b5761107a61239f565b5b906000526020600020906009020190508234146110cd576040517f08c379a00000000000000000000000000000000000000000000000000000000081526004016110c490612518565b60405180910390fd5b8473ffffffffffffffffffffffffffffffffffffffff168260010160009054906101000a900473ffffffffffffffffffffffffffffffffffffffff1673ffffffffffffffffffffffffffffffffffffffff161461115f576040517f08c379a00000000000000000000000000000000000000000000000000000000081526004016111569061241a565b60405180910390fd5b60038081111561117257611171611a87565b5b8260070160009054906101000a900460ff16600381111561119657611195611a87565b5b036111d6576040517f08c379a00000000000000000000000000000000000000000000000000000000081526004016111cd90612584565b60405180910390fd5b8160070160019054906101000a900460ff1615611228576040517f08c379a000000000000000000000000000000000000000000000000000000000815260040161121f906125f0565b60405180910390fd5b60028260070160006101000a81548160ff021916908360038111156112505761124f611a87565b5b021790555060028160070160006101000a81548160ff0219169083600381111561127d5761127c611a87565b5b021790555042816003018190555042826003018190555060008260050154905060018360070160016101000a81548160ff02191690831515021790555060018260070160016101000a81548160ff0219169083151502179055508573ffffffffffffffffffffffffffffffffffffffff168773ffffffffffffffffffffffffffffffffffffffff167fda13f4e715c5224a6c4862bc1fa1884faac54aa9c3cfc767cb96003bc37f978d85600301548760405161133a929190612610565b60405180910390a38573ffffffffffffffffffffffffffffffffffffffff168773ffffffffffffffffffffffffffffffffffffffff167fd8d123777154196005388c5581d98b3523416fa17f7a83bf986aad28c8094afa8360405161139f9190611cc1565b60405180910390a350505050505050565b60008060008673ffffffffffffffffffffffffffffffffffffffff1673ffffffffffffffffffffffffffffffffffffffff16815260200190815260200160002083815481106114025761140161239f565b5b906000526020600020906009020190506000600284815481106114285761142761239f565b5b906000526020600020906009020190508473ffffffffffffffffffffffffffffffffffffffff168260010160009054906101000a900473ffffffffffffffffffffffffffffffffffffffff1673ffffffffffffffffffffffffffffffffffffffff16146114ca576040517f08c379a00000000000000000000000000000000000000000000000000000000081526004016114c19061241a565b60405180910390fd5b600060038111156114de576114dd611a87565b5b8260070160009054906101000a900460ff16600381111561150257611501611a87565b5b148061154357506001600381111561151d5761151c611a87565b5b8260070160009054906101000a900460ff16600381111561154157611540611a87565b5b145b611582576040517f08c379a000000000000000000000000000000000000000000000000000000000815260040161157990612685565b60405180910390fd5b60038260070160006101000a81548160ff021916908360038111156115aa576115a9611a87565b5b021790555060038160070160006101000a81548160ff021916908360038111156115d7576115d6611a87565b5b0217905550828260080190816115ed919061220a565b50828160080190816115ff919061220a565b508473ffffffffffffffffffffffffffffffffffffffff168673ffffffffffffffffffffffffffffffffffffffff167fe96ce72048e73152e503713eeaf9fcd854d0584ebcf1b50536f1860d4e732e1c8560405161165d91906126a5565b60405180910390a3505050505050565b60008060008373ffffffffffffffffffffffffffffffffffffffff1673ffffffffffffffffffffffffffffffffffffffff168152602001908152602001600020805490509050919050565b6000604051905090565b600080fd5b600080fd5b600073ffffffffffffffffffffffffffffffffffffffff82169050919050565b60006116f7826116cc565b9050919050565b611707816116ec565b811461171257600080fd5b50565b600081359050611724816116fe565b92915050565b6000819050919050565b61173d8161172a565b811461174857600080fd5b50565b60008135905061175a81611734565b92915050565b600080fd5b600080fd5b6000601f19601f8301169050919050565b7f4e487b7100000000000000000000000000000000000000000000000000000000600052604160045260246000fd5b6117b38261176a565b810181811067ffffffffffffffff821117156117d2576117d161177b565b5b80604052505050565b60006117e56116b8565b90506117f182826117aa565b919050565b600067ffffffffffffffff8211156118115761181061177b565b5b61181a8261176a565b9050602081019050919050565b82818337600083830152505050565b6000611849611844846117f6565b6117db565b90508281526020810184848401111561186557611864611765565b5b611870848285611827565b509392505050565b600082601f83011261188d5761188c611760565b5b813561189d848260208601611836565b91505092915050565b60008060008060008060c087890312156118c3576118c26116c2565b5b60006118d189828a01611715565b96505060206118e289828a0161174b565b95505060406118f389828a0161174b565b945050606061190489828a0161174b565b935050608087013567ffffffffffffffff811115611925576119246116c7565b5b61193189828a01611878565b92505060a087013567ffffffffffffffff811115611952576119516116c7565b5b61195e89828a01611878565b9150509295509295509295565b600080600060608486031215611984576119836116c2565b5b600061199286828701611715565b93505060206119a386828701611715565b92505060406119b48682870161174b565b9150509250925092565b600081519050919050565b600082825260208201905092915050565b6000819050602082019050919050565b6119f3816116ec565b82525050565b611a028161172a565b82525050565b600081519050919050565b600082825260208201905092915050565b60005b83811015611a42578082015181840152602081019050611a27565b60008484015250505050565b6000611a5982611a08565b611a638185611a13565b9350611a73818560208601611a24565b611a7c8161176a565b840191505092915050565b7f4e487b7100000000000000000000000000000000000000000000000000000000600052602160045260246000fd5b60048110611ac757611ac6611a87565b5b50565b6000819050611ad882611ab6565b919050565b6000611ae882611aca565b9050919050565b611af881611add565b82525050565b60008115159050919050565b611b1381611afe565b82525050565b600061014083016000830151611b3260008601826119ea565b506020830151611b4560208601826119ea565b506040830151611b5860408601826119f9565b506060830151611b6b60608601826119f9565b506080830151611b7e60808601826119f9565b5060a0830151611b9160a08601826119f9565b5060c083015184820360c0860152611ba98282611a4e565b91505060e0830151611bbe60e0860182611aef565b50610100830151611bd3610100860182611b0a565b50610120830151848203610120860152611bed8282611a4e565b9150508091505092915050565b6000611c068383611b19565b905092915050565b6000602082019050919050565b6000611c26826119be565b611c3081856119c9565b935083602082028501611c42856119da565b8060005b85811015611c7e5784840389528151611c5f8582611bfa565b9450611c6a83611c0e565b925060208a01995050600181019050611c46565b50829750879550505050505092915050565b60006020820190508181036000830152611caa8184611c1b565b905092915050565b611cbb8161172a565b82525050565b6000602082019050611cd66000830184611cb2565b92915050565b60008060408385031215611cf357611cf26116c2565b5b6000611d0185828601611715565b9250506020611d128582860161174b565b9150509250929050565b611d25816116ec565b82525050565b600082825260208201905092915050565b6000611d4782611a08565b611d518185611d2b565b9350611d61818560208601611a24565b611d6a8161176a565b840191505092915050565b611d7e81611add565b82525050565b611d8d81611afe565b82525050565b600061014082019050611da9600083018d611d1c565b611db6602083018c611d1c565b611dc3604083018b611cb2565b611dd0606083018a611cb2565b611ddd6080830189611cb2565b611dea60a0830188611cb2565b81810360c0830152611dfc8187611d3c565b9050611e0b60e0830186611d75565b611e19610100830185611d84565b818103610120830152611e2c8184611d3c565b90509b9a5050505050505050505050565b600061014082019050611e53600083018d611d1c565b611e60602083018c611d1c565b611e6d604083018b611cb2565b611e7a606083018a611cb2565b611e876080830189611cb2565b611e9460a0830188611cb2565b81810360c0830152611ea68187611d3c565b905081810360e0830152611eba8186611d3c565b9050611eca610100830185611d75565b611ed8610120830184611d84565b9b9a5050505050505050505050565b60008060008060808587031215611f0157611f006116c2565b5b6000611f0f87828801611715565b9450506020611f2087828801611715565b9350506040611f318782880161174b565b9250506060611f428782880161174b565b91505092959194509250565b60008060008060808587031215611f6857611f676116c2565b5b6000611f7687828801611715565b9450506020611f8787828801611715565b9350506040611f988782880161174b565b925050606085013567ffffffffffffffff811115611fb957611fb86116c7565b5b611fc587828801611878565b91505092959194509250565b600060208284031215611fe757611fe66116c2565b5b6000611ff584828501611715565b91505092915050565b7f4e487b7100000000000000000000000000000000000000000000000000000000600052602260045260246000fd5b6000600282049050600182168061204557607f821691505b60208210810361205857612057611ffe565b5b50919050565b60008190508160005260206000209050919050565b60006020601f8301049050919050565b600082821b905092915050565b6000600883026120c07fffffffffffffffffffffffffffffffffffffffffffffffffffffffffffffffff82612083565b6120ca8683612083565b95508019841693508086168417925050509392505050565b6000819050919050565b60006121076121026120fd8461172a565b6120e2565b61172a565b9050919050565b6000819050919050565b612121836120ec565b61213561212d8261210e565b848454612090565b825550505050565b600090565b61214a61213d565b612155818484612118565b505050565b5b818110156121795761216e600082612142565b60018101905061215b565b5050565b601f8211156121be5761218f8161205e565b61219884612073565b810160208510156121a7578190505b6121bb6121b385612073565b83018261215a565b50505b505050565b600082821c905092915050565b60006121e1600019846008026121c3565b1980831691505092915050565b60006121fa83836121d0565b9150826002028217905092915050565b61221382611a08565b67ffffffffffffffff81111561222c5761222b61177b565b5b612236825461202d565b61224182828561217d565b600060209050601f8311600181146122745760008415612262578287015190505b61226c85826121ee565b8655506122d4565b601f1984166122828661205e565b60005b828110156122aa57848901518255600182019150602085019450602081019050612285565b868310156122c757848901516122c3601f8916826121d0565b8355505b6001600288020188555050505b505050505050565b7f4e487b7100000000000000000000000000000000000000000000000000000000600052601160045260246000fd5b60006123168261172a565b91507fffffffffffffffffffffffffffffffffffffffffffffffffffffffffffffffff8203612348576123476122dc565b5b600182019050919050565b60006080820190506123686000830187611cb2565b6123756020830186611cb2565b6123826040830185611cb2565b81810360608301526123948184611d3c565b905095945050505050565b7f4e487b7100000000000000000000000000000000000000000000000000000000600052603260045260246000fd5b7f496e76616c696420726563656976657200000000000000000000000000000000600082015250565b6000612404601083611d2b565b915061240f826123ce565b602082019050919050565b60006020820190508181036000830152612433816123f7565b9050919050565b7f46756e6420616c726561647920696e207472616e7369742e0000000000000000600082015250565b6000612470601883611d2b565b915061247b8261243a565b602082019050919050565b6000602082019050818103600083015261249f81612463565b9050919050565b7f5061796d656e7420616d6f756e74206d757374206d617463682074686520707260008201527f6963650000000000000000000000000000000000000000000000000000000000602082015250565b6000612502602383611d2b565b915061250d826124a6565b604082019050919050565b60006020820190508181036000830152612531816124f5565b9050919050565b7f46756e642069732072656a65637465642e000000000000000000000000000000600082015250565b600061256e601183611d2b565b915061257982612538565b602082019050919050565b6000602082019050818103600083015261259d81612561565b9050919050565b7f46756e6420616c72656164792070616964000000000000000000000000000000600082015250565b60006125da601183611d2b565b91506125e5826125a4565b602082019050919050565b60006020820190508181036000830152612609816125cd565b9050919050565b60006040820190506126256000830185611cb2565b6126326020830184611cb2565b9392505050565b7f46756e6420616c72656164792052656a65637465642e00000000000000000000600082015250565b600061266f601683611d2b565b915061267a82612639565b602082019050919050565b6000602082019050818103600083015261269e81612662565b9050919050565b600060208201905081810360008301526126bf8184611d3c565b90509291505056fea26469706673582212209c0e02aa23b95192d8d1feeab7bbb3f9fa8a2149ebc8af84d74530d08d14c33264736f6c63430008110033",
  "linkReferences": {},
  "deployedLinkReferences": {}
}