{
  "_format": "hh-sol-artifact-1",
  "contractName": "Tracking",
  "sourceName": "contracts/Tracking.sol",
  "abi": [
    {
      "inputs": [],
      "stateMutability": "nonpayable",
      "type": "constructor"
    },
    {
      "anonymous": false,
      "inputs": [
        {
          "indexed": true,
          "internalType": "address",
          "name": "sender",
          "type": "address"
        },
        {
          "indexed": true,
          "internalType": "address",
          "name": "receiver",
          "type": "address"
        },
        {
          "indexed": false,
          "internalType": "uint256",
          "name": "amount",
          "type": "uint256"
        }
      ],
      "name": "FundCentral",
      "type": "event"
    },
    {
      "anonymous": false,
      "inputs": [
        {
          "indexed": true,
          "internalType": "address",
          "name": "sender",
          "type": "address"
        },
        {
          "indexed": true,
          "internalType": "address",
          "name": "receiver",
          "type": "address"
        },
        {
          "indexed": false,
          "internalType": "string",
          "name": "req_date",
          "type": "string"
        },
        {
          "indexed": false,
          "internalType": "string",
          "name": "from",
          "type": "string"
        },
        {
          "indexed": false,
          "internalType": "uint256",
          "name": "amount",
          "type": "uint256"
        }
      ],
      "name": "FundCreated",
      "type": "event"
    },
    {
      "anonymous": false,
      "inputs": [
        {
          "indexed": true,
          "internalType": "address",
          "name": "sender",
          "type": "address"
        },
        {
          "indexed": true,
          "internalType": "address",
          "name": "receiver",
          "type": "address"
        },
        {
          "indexed": false,
          "internalType": "uint256",
          "name": "amount",
          "type": "uint256"
        }
      ],
      "name": "FundPaid",
      "type": "event"
    },
    {
      "anonymous": false,
      "inputs": [
        {
          "indexed": true,
          "internalType": "address",
          "name": "sender",
          "type": "address"
        },
        {
          "indexed": true,
          "internalType": "address",
          "name": "receiver",
          "type": "address"
        },
        {
          "indexed": false,
          "internalType": "string",
          "name": "feedback",
          "type": "string"
        }
      ],
      "name": "FundRejected",
      "type": "event"
    },
    {
      "anonymous": false,
      "inputs": [
        {
          "indexed": true,
          "internalType": "address",
          "name": "sender",
          "type": "address"
        },
        {
          "indexed": true,
          "internalType": "address",
          "name": "receiver",
          "type": "address"
        },
        {
          "indexed": false,
          "internalType": "string",
          "name": "req_date",
          "type": "string"
        }
      ],
      "name": "FundState",
      "type": "event"
    },
    {
      "inputs": [
        {
          "internalType": "address",
          "name": "_sender",
          "type": "address"
        },
        {
          "internalType": "address",
          "name": "_receiver",
          "type": "address"
        },
        {
          "internalType": "uint256",
          "name": "_index",
          "type": "uint256"
        },
        {
          "internalType": "string",
          "name": "_feedback",
          "type": "string"
        }
      ],
      "name": "RejectFund",
      "outputs": [],
      "stateMutability": "nonpayable",
      "type": "function"
    },
    {
      "inputs": [
        {
          "internalType": "address",
          "name": "_sender",
          "type": "address"
        },
        {
          "internalType": "address",
          "name": "_receiver",
          "type": "address"
        },
        {
          "internalType": "uint256",
          "name": "_index",
          "type": "uint256"
        },
        {
          "internalType": "uint256",
          "name": "_amount",
          "type": "uint256"
        }
      ],
      "name": "centralFund",
      "outputs": [],
      "stateMutability": "nonpayable",
      "type": "function"
    },
    {
      "inputs": [
        {
          "internalType": "address",
          "name": "",
          "type": "address"
        },
        {
          "internalType": "uint256",
          "name": "",
          "type": "uint256"
        }
      ],
      "name": "confirms",
      "outputs": [
        {
          "internalType": "address",
          "name": "sender",
          "type": "address"
        },
        {
          "internalType": "address",
          "name": "receiver",
          "type": "address"
        },
        {
          "internalType": "string",
          "name": "name",
          "type": "string"
        },
        {
          "internalType": "string",
          "name": "Req_Date",
          "type": "string"
        },
        {
          "internalType": "string",
          "name": "from",
          "type": "string"
        },
        {
          "internalType": "uint256",
          "name": "amount",
          "type": "uint256"
        },
        {
          "internalType": "string",
          "name": "reason",
          "type": "string"
        },
        {
          "internalType": "string",
          "name": "image",
          "type": "string"
        },
        {
          "internalType": "enum Tracking.FundStatus",
          "name": "status",
          "type": "uint8"
        },
        {
          "internalType": "bool",
          "name": "isPaid",
          "type": "bool"
        },
        {
          "internalType": "string",
          "name": "feedback",
          "type": "string"
        },
        {
          "internalType": "string",
          "name": "To",
          "type": "string"
        },
        {
          "internalType": "string",
          "name": "file",
          "type": "string"
        },
        {
          "internalType": "string",
          "name": "Id_proof",
          "type": "string"
        }
      ],
      "stateMutability": "view",
      "type": "function"
    },
    {
      "inputs": [
        {
          "internalType": "address",
          "name": "sender",
          "type": "address"
        },
        {
          "internalType": "string",
          "name": "name",
          "type": "string"
        },
        {
          "internalType": "string",
          "name": "Req_Date",
          "type": "string"
        },
        {
          "internalType": "string",
          "name": "from",
          "type": "string"
        },
        {
          "internalType": "uint256",
          "name": "amount",
          "type": "uint256"
        },
        {
          "internalType": "string",
          "name": "reason",
          "type": "string"
        },
        {
          "internalType": "string",
          "name": "image",
          "type": "string"
        },
        {
          "internalType": "string",
          "name": "feedback",
          "type": "string"
        },
        {
          "internalType": "string",
          "name": "To",
          "type": "string"
        },
        {
          "internalType": "string",
          "name": "file",
          "type": "string"
        },
        {
          "internalType": "string",
          "name": "Id_proof",
          "type": "string"
        }
      ],
      "name": "createFund",
      "outputs": [],
      "stateMutability": "payable",
      "type": "function"
    },
    {
      "inputs": [],
      "name": "fundCount",
      "outputs": [
        {
          "internalType": "uint256",
          "name": "",
          "type": "uint256"
        }
      ],
      "stateMutability": "view",
      "type": "function"
    },
    {
      "inputs": [
        {
          "internalType": "address",
          "name": "",
          "type": "address"
        },
        {
          "internalType": "uint256",
          "name": "",
          "type": "uint256"
        }
      ],
      "name": "funds",
      "outputs": [
        {
          "internalType": "address",
          "name": "sender",
          "type": "address"
        },
        {
          "internalType": "address",
          "name": "receiver",
          "type": "address"
        },
        {
          "internalType": "string",
          "name": "name",
          "type": "string"
        },
        {
          "internalType": "string",
          "name": "Req_Date",
          "type": "string"
        },
        {
          "internalType": "string",
          "name": "from",
          "type": "string"
        },
        {
          "internalType": "uint256",
          "name": "amount",
          "type": "uint256"
        },
        {
          "internalType": "string",
          "name": "reason",
          "type": "string"
        },
        {
          "internalType": "string",
          "name": "image",
          "type": "string"
        },
        {
          "internalType": "enum Tracking.FundStatus",
          "name": "status",
          "type": "uint8"
        },
        {
          "internalType": "bool",
          "name": "isPaid",
          "type": "bool"
        },
        {
          "internalType": "string",
          "name": "feedback",
          "type": "string"
        },
        {
          "internalType": "string",
          "name": "To",
          "type": "string"
        },
        {
          "internalType": "string",
          "name": "file",
          "type": "string"
        },
        {
          "internalType": "string",
          "name": "Id_proof",
          "type": "string"
        }
      ],
      "stateMutability": "view",
      "type": "function"
    },
    {
      "inputs": [],
      "name": "getAllTransactions",
      "outputs": [
        {
          "components": [
            {
              "internalType": "address",
              "name": "sender",
              "type": "address"
            },
            {
              "internalType": "address",
              "name": "receiver",
              "type": "address"
            },
            {
              "internalType": "string",
              "name": "name",
              "type": "string"
            },
            {
              "internalType": "string",
              "name": "Req_Date",
              "type": "string"
            },
            {
              "internalType": "string",
              "name": "from",
              "type": "string"
            },
            {
              "internalType": "uint256",
              "name": "amount",
              "type": "uint256"
            },
            {
              "internalType": "string",
              "name": "reason",
              "type": "string"
            },
            {
              "internalType": "string",
              "name": "image",
              "type": "string"
            },
            {
              "internalType": "enum Tracking.FundStatus",
              "name": "status",
              "type": "uint8"
            },
            {
              "internalType": "bool",
              "name": "isPaid",
              "type": "bool"
            },
            {
              "internalType": "string",
              "name": "feedback",
              "type": "string"
            },
            {
              "internalType": "string",
              "name": "To",
              "type": "string"
            },
            {
              "internalType": "string",
              "name": "file",
              "type": "string"
            },
            {
              "internalType": "string",
              "name": "Id_proof",
              "type": "string"
            }
          ],
          "internalType": "struct Tracking.TypeFund[]",
          "name": "",
          "type": "tuple[]"
        }
      ],
      "stateMutability": "view",
      "type": "function"
    },
    {
      "inputs": [
        {
          "internalType": "address",
          "name": "_receiver",
          "type": "address"
        },
        {
          "internalType": "uint256",
          "name": "_index",
          "type": "uint256"
        }
      ],
      "name": "getFund",
      "outputs": [
        {
          "internalType": "address",
          "name": "",
          "type": "address"
        },
        {
          "internalType": "address",
          "name": "",
          "type": "address"
        },
        {
          "internalType": "string",
          "name": "",
          "type": "string"
        },
        {
          "internalType": "string",
          "name": "",
          "type": "string"
        },
        {
          "internalType": "string",
          "name": "",
          "type": "string"
        },
        {
          "internalType": "uint256",
          "name": "",
          "type": "uint256"
        },
        {
          "internalType": "string",
          "name": "",
          "type": "string"
        },
        {
          "internalType": "string",
          "name": "",
          "type": "string"
        },
        {
          "internalType": "enum Tracking.FundStatus",
          "name": "",
          "type": "uint8"
        },
        {
          "internalType": "bool",
          "name": "",
          "type": "bool"
        }
      ],
      "stateMutability": "view",
      "type": "function"
    },
    {
      "inputs": [
        {
          "internalType": "address",
          "name": "_sender",
          "type": "address"
        }
      ],
      "name": "getFundCount",
      "outputs": [
        {
          "internalType": "uint256",
          "name": "",
          "type": "uint256"
        }
      ],
      "stateMutability": "view",
      "type": "function"
    },
    {
      "inputs": [
        {
          "internalType": "address",
          "name": "_sender",
          "type": "address"
        },
        {
          "internalType": "uint256",
          "name": "_index",
          "type": "uint256"
        }
      ],
      "name": "getFundmain",
      "outputs": [
        {
          "internalType": "address",
          "name": "",
          "type": "address"
        },
        {
          "internalType": "address",
          "name": "",
          "type": "address"
        },
        {
          "internalType": "string",
          "name": "",
          "type": "string"
        },
        {
          "internalType": "string",
          "name": "",
          "type": "string"
        },
        {
          "internalType": "string",
          "name": "",
          "type": "string"
        },
        {
          "internalType": "uint256",
          "name": "",
          "type": "uint256"
        },
        {
          "internalType": "string",
          "name": "",
          "type": "string"
        },
        {
          "internalType": "string",
          "name": "",
          "type": "string"
        },
        {
          "internalType": "enum Tracking.FundStatus",
          "name": "",
          "type": "uint8"
        },
        {
          "internalType": "bool",
          "name": "",
          "type": "bool"
        },
        {
          "internalType": "string",
          "name": "",
          "type": "string"
        },
        {
          "internalType": "string",
          "name": "",
          "type": "string"
        },
        {
          "internalType": "string",
          "name": "",
          "type": "string"
        }
      ],
      "stateMutability": "view",
      "type": "function"
    },
    {
      "inputs": [
        {
          "internalType": "address",
          "name": "sender",
          "type": "address"
        },
        {
          "internalType": "uint256",
          "name": "index",
          "type": "uint256"
        }
      ],
      "name": "removePayee",
      "outputs": [],
      "stateMutability": "nonpayable",
      "type": "function"
    },
    {
      "inputs": [
        {
          "internalType": "address",
          "name": "_sender",
          "type": "address"
        },
        {
          "internalType": "address",
          "name": "_receiver",
          "type": "address"
        },
        {
          "internalType": "uint256",
          "name": "_index",
          "type": "uint256"
        },
        {
          "internalType": "address",
          "name": "update",
          "type": "address"
        }
      ],
      "name": "startFund",
      "outputs": [],
      "stateMutability": "nonpayable",
      "type": "function"
    }
  ],
  "bytecode": "0x6080806040523461001a575f600355612358908161001f8239f35b5f80fdfe60806040526004361015610011575f80fd5b5f3560e01c80631e77fe64146112c657806327506f5314610f995780633f936ff514610f7c5780634941544314610bdd57806384e45c3d14610bb657806388b22c2414610b6f5780638bd99c4f146109f8578063b77480761461081f578063bcba0a8b14610445578063dceae3e11461040d578063e13792ef1461020e5763f805b1341461009d575f80fd5b3461020a57604036600319011261020a576100b661146a565b6001600160a01b039081165f90815260016020526040902080546024359081101561020a576100e4916115a3565b50610206600c838354169360018401541692600a6009604051966101168861010f81600288016115f4565b03896114fd565b604051906101328261012b81600389016115f4565b03836114fd565b60405161014d816101468160048a016115f4565b03826114fd565b6005860154604051906101678261012b8160068c016115f4565b604051926101838461017c8160078d016115f4565b03856114fd565b60088901549561019d8a61010f604051809b8193016115f4565b6101b88a6101b1604051809c8193016115f4565b038a6114fd565b6101ee6040519a6101d78c6101d081600b85016115f4565b038d6114fd565b6101e7604051809e8193016115f4565b038c6114fd565b6040519d8e9d8e9760ff808b60081c169a1698611685565b0390f35b5f80fd5b3461020a57604036600319011261020a576001600160a01b038061023061146a565b165f525f60205260243560405f2090610248916115a3565b509080825416906001830154169160058101546008820154906040519182806002860190610275916115f4565b0361028090846114fd565b604051918261029281600388016115f4565b0361029d90846114fd565b60405190816102af81600489016115f4565b036102ba90836114fd565b60405190816102cc8160068a016115f4565b036102d790836114fd565b60405192836102e98160098b016115f4565b036102f490856114fd565b60405195866103068160078c016115f4565b0361031190886114fd565b604051978861032381600c8d016115f4565b0361032e908a6114fd565b60405180600b819c0190610341916115f4565b0361034c908b6114fd565b6040519b8c9b8c5260208c01526101a08060408d01528b0161036d91611496565b8a810360608c015261037e91611496565b89810360808b015261038f91611496565b9060a089015287810360c08901526103a691611496565b86810360e08801526103b791611496565b906103c9610100870160ff83166114d4565b60081c60ff1615156101208601528481036101408601526103e991611496565b8381036101608501526103fb91611496565b82810361018084015261020691611496565b3461020a57602036600319011261020a576001600160a01b0361042e61146a565b165f526001602052602060405f2054604051908152f35b3461020a57608036600319011261020a5761045e61146a565b610466611480565b604435916001600160401b0360643581811161020a5761048a90369060040161151e565b9060018060a01b0380931692835f526020915f83526104ac8760405f206115a3565b5091806104b889611573565b50971696875f526104e2886104d560019b8c895260405f206115a3565b50938b8701541614611f33565b6008840193845460ff8116600481101561080b578b8115918215610801575b5050156107c357906009916003968760ff198093161790556008840187828254161790558660088601918254161790550186518481116106c85761054f8161054984546115bc565b8461177d565b86601f821160011461075457908060099493925f91610749575b505f1982891b1c1916908c1b1790555b0185518381116106c8576105918161054984546115bc565b85601f82116001146106e757908060099493925f916106dc575b505f1982881b1c1916908b1b1790555b019184519182116106c8576105da826105d485546115bc565b8561177d565b8397601f831160011461064857908280927fe96ce72048e73152e503713eeaf9fcd854d0584ebcf1b50536f1860d4e732e1c98999a5f9461063d575b501b925f19911b1c19161790555b610638604051928284938452830190611496565b0390a3005b88015193508b610616565b9190601f19821690845f52855f20915f5b8181106106b3575099837fe96ce72048e73152e503713eeaf9fcd854d0584ebcf1b50536f1860d4e732e1c999a9b1061069a575b505050811b019055610624565b8701519060f8845f19921b161c1916905588808061068d565b888c015184559a87019a928501928701610659565b634e487b7160e01b5f52604160045260245ffd5b90508801518c6105ab565b5f838152878120601f1984169594938d9390925b8a8c89831061073457505050826009971061071d575b5050811b0190556105bb565b8a01515f19838a1b60f8161c191690558c80610711565b83015184558f959093019291820191016106fb565b90508901518d610569565b5f838152888120601f1984169594938e9390925b8b8d8983106107a157505050826009971061078a575b5050811b019055610579565b8b01515f19838b1b60f8161c191690558d8061077e565b938382949792939698999a95015181550194019201918e939196959492610768565b60405162461bcd60e51b8152600481018890526016602482015275233ab7321030b63932b0b23c902932b532b1ba32b21760511b6044820152606490fd5b1490508b8d610501565b634e487b7160e01b5f52602160045260245ffd5b3461020a57608036600319011261020a5761088c61083b61146a565b610843611480565b60443560018060a01b0380931692835f526020915f835261089a61086a8260405f206115a3565b50918361087682611573565b509616978891825f526001875260405f206115a3565b509360018401541614611f33565b600881019384549060ff8216600481101561080b576003146109bf5760ff8260081c1661098657906002600880600595948360ff19809616178a550195828488541617875501918254161790550154926101009061ff00199082828254161790558254161790555f8285811561097c575b5f92839283928392f115610971577fd8d123777154196005388c5581d98b3523416fa17f7a83bf986aad28c8094afa9184847fd59b7207676345d8f00fb155d4a655cfbd8b3ad351d9c7f0ccc70f35d3f0b590846040516064358152a3604051908152a3005b6040513d5f823e3d90fd5b6108fc925061090b565b60405162461bcd60e51b8152600481018690526011602482015270119d5b9908185b1c9958591e481c185a59607a1b6044820152606490fd5b60405162461bcd60e51b8152600481018690526011602482015270233ab7321034b9903932b532b1ba32b21760791b6044820152606490fd5b3461020a57604036600319011261020a576001600160a01b0380610a1a61146a565b165f52600160205260243560405f2090610a33916115a3565b50908082541690600183015416916005810154906008810154916040519081806002850190610a61916115f4565b03610a6c90836114fd565b60405180610a7d81600387016115f4565b03610a8890826114fd565b6040519081610a9a81600488016115f4565b03610aa590836114fd565b6040519384610ab781600689016115f4565b03610ac290866114fd565b60405180600981980190610ad5916115f4565b03610ae090876114fd565b604051988998895260208901526101408060408a01528801610b0191611496565b8781036060890152610b1291611496565b8681036080880152610b2391611496565b9060a086015284810360c0860152610b3a91611496565b83810360e0850152610b4b91611496565b90610b5d610100840160ff83166114d4565b60081c60ff1615156101208301520390f35b3461020a57604036600319011261020a57610b8861146a565b6001600160a01b039081165f90815260208190526040902080546024359081101561020a576100e4916115a3565b3461020a57604036600319011261020a57610bdb610bd261146a565b6024359061219a565b005b61016036600319011261020a57610bf261146a565b6001600160401b0360243581811161020a57610c1290369060040161151e565b9060443581811161020a57610c2b90369060040161151e565b9160643582811161020a57610c4490369060040161151e565b9160a43581811161020a57610c5d90369060040161151e565b9060c43581811161020a57610c7690369060040161151e565b60e43582811161020a57610c8e90369060040161151e565b6101043583811161020a57610ca790369060040161151e565b916101243584811161020a57610cc190369060040161151e565b936101443590811161020a57610cdb90369060040161151e565b946084353403610f2b57604051610cf1816114e1565b60018060a01b038b16815233602082015287604082015289606082015288608082015260843560a08201528160c08201528260e08201525f6101008201525f610120820152836101408201528461016082015285610180820152866101a082015260405190610d5f826114e1565b60018060a01b038c1682523360208301528860408301528a606083015289608083015260843560a08301528260c08301528360e08301525f6101008301525f610120830152846101408301528561016083015286610180830152876101a083015260018060a01b038c165f525f60205260405f2090815491600160401b8310156106c85782610df6916001610dfc950181556115a3565b906117da565b335f52600160205260405f2090815491600160401b8310156106c85782610df6916001610e2b950181556115a3565b610e36600354611f11565b60035560405196610e46886114e1565b6001600160a01b038b1688523360208901526040880152606087018990526080870188905260843560a088015260c087015260e08601525f61010086018190526101208601526101408501526101608401526101808301526101a082015260025491600160401b8310156106c857610eec610f0f92610df68560017fab6ddbb22bfb67279e9b459ed92bcb90a725d7f6afab7953f8b59e96303c0d479701600255611573565b610f0160405194606086526060860190611496565b908482036020860152611496565b608435604084015233936001600160a01b0316929081900390a3005b60405162461bcd60e51b815260206004820152602360248201527f5061796d656e7420616d6f756e74206d757374206d617463682074686520707260448201526269636560e81b6064820152608490fd5b3461020a575f36600319011261020a576020600354604051908152f35b3461020a575f36600319011261020a576002546001600160401b0381116106c85760405190600591610fd0602083851b01826114fd565b81815260025f9081526020820192907f405787fa12a823e0f2b7631cc41b3ba8828b3321ca811111fa75cd3aa3bb5ace90845b8382106111715786858760405192839260208401906020855251809152604081818601931b85010192915f905b82821061103f57505050500390f35b919360019193955060206111618192603f198a82030186528851858060a01b0380825116835284820151168483015261114d6111396111256110f16110df6110c26110af61109c60408901516101c08060408d01528b0190611496565b6060808a0151908b8303908c0152611496565b608080890151908a8303908b0152611496565b60a0808801519089015260c08088015190898303908a0152611496565b60e086015187820360e0890152611496565b61110461010080870151908801906114d4565b61012080860151151590870152610140808601519087830390880152611496565b610160808501519086830390870152611496565b610180808401519085830390860152611496565b916101a08092015191818403910152611496565b9601920192018594939192611030565b6040519061117e826114e1565b83546001600160a01b03908116835260018501541660208301526040516111ac8161014681600289016115f4565b60408301526040516111c58161014681600389016115f4565b60608301526040516111de8161014681600489016115f4565b60808301528784015460a08301526040516112008161014681600689016115f4565b60c08301526040516112198161014681600789016115f4565b60e08301526008908185015490600460ff8316101561080b5760019360ff83600d9582602096166101008501521c161515610120820152604051611264816101468160098c016115f4565b61014082015260405161127e8161014681600a8c016115f4565b6101608201526040516112988161014681600b8c016115f4565b6101808201526040516112b28161014681600c8c016115f4565b6101a0820152815201930191019091611003565b3461020a57608036600319011261020a576112df61146a565b6112e7611480565b6001600160a01b03916044356064358481169081900361020a5784831693845f526020915f835261131b8460405f206115a3565b50908761132786611573565b50931697885f526001938486526113528a6113458960405f206115a3565b5093878701541614611f33565b6008840180549060ff8216600481101561080b576114255760ff199182168717905560088083018054831688179055830180549091168617905583546001600160a01b031990811684178555815481168417909155815416821790555f90815280845260409020805494909290600160401b8610156106c8577f7d7e64649d3c8bb2b50b8249466b8d60aaea99a192d64a2bce4d8aecbcf1172a9661140e8461140889610638986114139760039c0181556115a3565b90612046565b61219a565b604051938385948552840191016115f4565b60405162461bcd60e51b815260048101899052601e60248201527f46756e6420616c726561647920696e20535441544520415050524f56454400006044820152606490fd5b600435906001600160a01b038216820361020a57565b602435906001600160a01b038216820361020a57565b91908251928382525f5b8481106114c0575050825f602080949584010152601f8019910116010190565b6020818301810151848301820152016114a0565b90600482101561080b5752565b6101c081019081106001600160401b038211176106c857604052565b90601f801991011681019081106001600160401b038211176106c857604052565b81601f8201121561020a578035906001600160401b0382116106c85760405192611552601f8401601f1916602001856114fd565b8284526020838301011161020a57815f926020809301838601378301015290565b60025481101561158f5760025f52600d60205f20910201905f90565b634e487b7160e01b5f52603260045260245ffd5b805482101561158f575f52600d60205f20910201905f90565b90600182811c921680156115ea575b60208310146115d657565b634e487b7160e01b5f52602260045260245ffd5b91607f16916115cb565b905f9291805491611604836115bc565b9182825260019384811690815f146116625750600114611625575b50505050565b90919394505f52602092835f2092845f945b83861061164e57505050500101905f80808061161f565b805485870183015294019385908201611637565b9294505050602093945060ff191683830152151560051b0101905f80808061161f565b9c999361174699966117649f9d9992988f6116f46117559f996116e6611707966116d86117379f9b6117219c6117159c60018060a01b0380921689521660208801526101c0806040890152870190611496565b908582036060870152611496565b908382036080850152611496565b9260a082015260c0818403910152611496565b8d810360e08f015290611496565b936101008c01906114d4565b15156101208a01528882036101408a0152611496565b90868203610160880152611496565b90848203610180860152611496565b916101a0818403910152611496565b90565b818110611772575050565b5f8155600101611767565b9190601f811161178c57505050565b6117b6925f5260205f20906020601f840160051c830193106117b8575b601f0160051c0190611767565b565b90915081906117a9565b90600481101561080b5760ff80198354169116179055565b90611efe57815181546001600160a01b03199081166001600160a01b039283161783556020808501516001858101805490941691909416179091556040840151805192936001600160401b039360028201908581116106c8576118418161054984546115bc565b8085601f95868311600114611e9f575f92611e94575b50505f19600383901b1c191690871b1790555b60039283820160608801518051908782116106c85781906118958261188f86546115bc565b8661177d565b8490878311600114611e36575f92611e2b575b50505f1982881b1c191690881b1790555b6004918281016080890151805190888211611bf85781906118de8261188f86546115bc565b8590888311600114611dcd575f92611dc2575b50505f1982891b1c191690891b1790555b60a088015160058201556006810160c0890151805190888211611bf857819061192f8261188f86546115bc565b8590888311600114611d64575f92611d59575b50505f1982891b1c191690891b1790555b6007810160e0890151805190888211611bf85781906119768261188f86546115bc565b8590888311600114611cfb575f92611cf0575b50505f1982891b1c191690891b1790555b6008810161010089015184811015611cdd57906119ba6119d692826117c2565b6101208a0151815461ff00191690151560081b61ff0016179055565b60098101610140890151805190888211611bf85781906119fa8261188f86546115bc565b8590888311600114611c7f575f92611c74575b50505f1982891b1c191690891b1790555b600a8101610160890151805190888211611bf8578190611a428261188f86546115bc565b8590888311600114611c16575f92611c0b575b50505f1982891b1c191690891b1790555b600b8101610180890151805190888211611bf857611a88826105d485546115bc565b8490878311600114611b8e579180600c94926101a096945f92611b83575b50505f19828b1b1c1916908b1b1790555b01970151918251958611611b705750611ada85611ad489546115bc565b8961177d565b80928511600114611b0e57509383949184925f95611b03575b50501b925f19911b1c1916179055565b015193505f80611af3565b92919084601f198116885f52855f20955f905b89838310611b565750505010611b3d575b50505050811b019055565b01519060f8845f19921b161c191690555f808080611b32565b858701518955909701969485019488935090810190611b21565b604190634e487b7160e01b5f525260245ffd5b015190505f80611aa6565b8a9291601f19831691855f52875f20925f5b89828210611be2575050916101a09795939185600c98969410611bcb575b505050811b019055611ab7565b01515f19838d1b60f8161c191690555f8080611bbe565b8385015186558f97909501949384019301611ba0565b604186634e487b7160e01b5f525260245ffd5b015190505f80611a55565b908b9350601f19831691855f52875f20925f5b89828210611c5e5750508411611c47575b505050811b019055611a66565b01515f19838b1b60f8161c191690555f8080611c3a565b8385015186558f97909501949384019301611c29565b015190505f80611a0d565b908b9350601f19831691855f52875f20925f5b89828210611cc75750508411611cb0575b505050811b019055611a1e565b01515f19838b1b60f8161c191690555f8080611ca3565b8385015186558f97909501949384019301611c92565b602185634e487b7160e01b5f525260245ffd5b015190505f80611989565b908b9350601f19831691855f52875f20925f5b89828210611d435750508411611d2c575b505050811b01905561199a565b01515f19838b1b60f8161c191690555f8080611d1f565b8385015186558f97909501949384019301611d0e565b015190505f80611942565b908b9350601f19831691855f52875f20925f5b89828210611dac5750508411611d95575b505050811b019055611953565b01515f19838b1b60f8161c191690555f8080611d88565b8385015186558f97909501949384019301611d77565b015190505f806118f1565b908b9350601f19831691855f52875f20925f5b89828210611e155750508411611dfe575b505050811b019055611902565b01515f19838b1b60f8161c191690555f8080611df1565b8385015186558f97909501949384019301611de0565b015190505f806118a8565b908a9350601f19831691855f52865f20925f5b88828210611e7e5750508411611e67575b505050811b0190556118b9565b01515f19838a1b60f8161c191690555f8080611e5a565b8385015186558e97909501949384019301611e49565b015190505f80611857565b90899350601f19831691855f52885f20925f5b8a828210611ee85750508411611ed0575b505050811b01905561186a565b01515f1960f88460031b161c191690555f8080611ec3565b8385015186558d97909501949384019301611eb2565b634e487b7160e01b5f525f60045260245ffd5b5f198114611f1f5760010190565b634e487b7160e01b5f52601160045260245ffd5b15611f3a57565b60405162461bcd60e51b815260206004820152601060248201526f24b73b30b634b2103932b1b2b4bb32b960811b6044820152606490fd5b9080821461204257611f8481546115bc565b906001600160401b0382116106c8578190611fa38261188f86546115bc565b5f90601f8311600114611fd7575f92611fcc575b50508160011b915f199060031b1c1916179055565b015490505f80611fb7565b81526020808220858352818320935090601f1985169083905b828210612029575050908460019594939210612011575b505050811b019055565b01545f1960f88460031b161c191690555f8080612007565b8495819295850154815560018091019601940190611ff0565b5050565b90611efe57818103612056575050565b600c806117b69360018060a01b038082541660018060a01b0319908187541617865560018601916001840154169082541617905561209a6002820160028601611f72565b6120aa6003820160038601611f72565b6120ba6004820160048601611f72565b600581015460058501556120d46006820160068601611f72565b6120e46007820160078601611f72565b61211a6008850160ff600884016120fe82825416846117c2565b5460081c1661ff00825491151560081b169061ff001916179055565b61212a6009820160098601611f72565b61213a600a8201600a8601611f72565b61214a600b8201600b8601611f72565b019101611f72565b61215c81546115bc565b9081612166575050565b81601f5f9311600114612177575055565b908083918252612196601f60208420940160051c840160018501611767565b5555565b6001600160a01b03165f8181526020818152604080832054929594909281101561231a575b838652858252828620545f1981019081116123065781101561223257838652858252828620600182019081831161221e576122016122199392612214926115a3565b5086895288855261140883878b206115a3565b611f11565b6121bf565b634e487b7160e01b88526011600452602488fd5b5084939491928252528120805480156122f2575f19019161225383836115a3565b9190916122de578181600c926122db945580600183015561227660028301612152565b61228260038301612152565b61228e60048301612152565b8060058301556122a060068301612152565b6122ac60078301612152565b60088201556122bd60098201612152565b6122c9600a8201612152565b6122d5600b8201612152565b01612152565b55565b634e487b7160e01b81526004819052602490fd5b634e487b7160e01b83526031600452602483fd5b634e487b7160e01b87526011600452602487fd5b50505050905056fea26469706673582212208af2eb5eab2fbdc523c995cb31741236b46edbf4287e8abe7719de4a349bb3dc64736f6c63430008140033",
  "linkReferences": {},
  "deployedLinkReferences": {}
}