{
  "_format": "hh-sol-artifact-1",
  "contractName": "Tracking",
  "sourceName": "contracts/Tracking.sol",
  "abi": [
    {
      "inputs": [],
      "stateMutability": "nonpayable",
      "type": "constructor"
    },
    {
      "anonymous": false,
      "inputs": [
        {
          "indexed": true,
          "internalType": "address",
          "name": "sender",
          "type": "address"
        },
        {
          "indexed": true,
          "internalType": "address",
          "name": "receiver",
          "type": "address"
        },
        {
          "indexed": false,
          "internalType": "uint256",
          "name": "pickuptime",
          "type": "uint256"
        },
        {
          "indexed": false,
          "internalType": "uint256",
          "name": "distance",
          "type": "uint256"
        },
        {
          "indexed": false,
          "internalType": "uint256",
          "name": "price",
          "type": "uint256"
        }
      ],
      "name": "ShipmentCreated",
      "type": "event"
    },
    {
      "anonymous": false,
      "inputs": [
        {
          "indexed": true,
          "internalType": "address",
          "name": "sender",
          "type": "address"
        },
        {
          "indexed": true,
          "internalType": "address",
          "name": "receiver",
          "type": "address"
        },
        {
          "indexed": false,
          "internalType": "uint256",
          "name": "deliveryTime",
          "type": "uint256"
        }
      ],
      "name": "ShipmentDelivered",
      "type": "event"
    },
    {
      "anonymous": false,
      "inputs": [
        {
          "indexed": true,
          "internalType": "address",
          "name": "sender",
          "type": "address"
        },
        {
          "indexed": false,
          "internalType": "uint256",
          "name": "pickuptime",
          "type": "uint256"
        }
      ],
      "name": "ShipmentInTransit",
      "type": "event"
    },
    {
      "anonymous": false,
      "inputs": [
        {
          "indexed": true,
          "internalType": "address",
          "name": "sender",
          "type": "address"
        },
        {
          "indexed": true,
          "internalType": "address",
          "name": "receiver",
          "type": "address"
        },
        {
          "indexed": false,
          "internalType": "uint256",
          "name": "amount",
          "type": "uint256"
        }
      ],
      "name": "ShipmentPaid",
      "type": "event"
    },
    {
      "inputs": [
        {
          "internalType": "address",
          "name": "_sender",
          "type": "address"
        },
        {
          "internalType": "address",
          "name": "_receiver",
          "type": "address"
        },
        {
          "internalType": "uint256",
          "name": "_index",
          "type": "uint256"
        }
      ],
      "name": "completeFund",
      "outputs": [],
      "stateMutability": "nonpayable",
      "type": "function"
    },
    {
      "inputs": [
        {
          "internalType": "address",
          "name": "_receiver",
          "type": "address"
        },
        {
          "internalType": "uint256",
          "name": "_pickupTime",
          "type": "uint256"
        },
        {
          "internalType": "uint256",
          "name": "_distance",
          "type": "uint256"
        },
        {
          "internalType": "uint256",
          "name": "_price",
          "type": "uint256"
        }
      ],
      "name": "createFund",
      "outputs": [],
      "stateMutability": "payable",
      "type": "function"
    },
    {
      "inputs": [],
      "name": "shipmentCount",
      "outputs": [
        {
          "internalType": "uint256",
          "name": "",
          "type": "uint256"
        }
      ],
      "stateMutability": "view",
      "type": "function"
    },
    {
      "inputs": [
        {
          "internalType": "address",
          "name": "",
          "type": "address"
        },
        {
          "internalType": "uint256",
          "name": "",
          "type": "uint256"
        }
      ],
      "name": "shipments",
      "outputs": [
        {
          "internalType": "address",
          "name": "sender",
          "type": "address"
        },
        {
          "internalType": "address",
          "name": "receiver",
          "type": "address"
        },
        {
          "internalType": "uint256",
          "name": "pickupTime",
          "type": "uint256"
        },
        {
          "internalType": "uint256",
          "name": "deliveryTime",
          "type": "uint256"
        },
        {
          "internalType": "uint256",
          "name": "distance",
          "type": "uint256"
        },
        {
          "internalType": "uint256",
          "name": "price",
          "type": "uint256"
        },
        {
          "internalType": "enum Tracking.ShipmentStatus",
          "name": "status",
          "type": "uint8"
        },
        {
          "internalType": "bool",
          "name": "isPaid",
          "type": "bool"
        }
      ],
      "stateMutability": "view",
      "type": "function"
    },
    {
      "inputs": [],
      "name": "getAllTransactions",
      "outputs": [
        {
          "components": [
            {
              "internalType": "address",
              "name": "sender",
              "type": "address"
            },
            {
              "internalType": "address",
              "name": "receiver",
              "type": "address"
            },
            {
              "internalType": "uint256",
              "name": "pickupTime",
              "type": "uint256"
            },
            {
              "internalType": "uint256",
              "name": "deliveryTime",
              "type": "uint256"
            },
            {
              "internalType": "uint256",
              "name": "distance",
              "type": "uint256"
            },
            {
              "internalType": "uint256",
              "name": "price",
              "type": "uint256"
            },
            {
              "internalType": "enum Tracking.ShipmentStatus",
              "name": "status",
              "type": "uint8"
            },
            {
              "internalType": "bool",
              "name": "isPaid",
              "type": "bool"
            }
          ],
          "internalType": "struct Tracking.TypeShipment[]",
          "name": "",
          "type": "tuple[]"
        }
      ],
      "stateMutability": "view",
      "type": "function"
    },
    {
      "inputs": [
        {
          "internalType": "address",
          "name": "_sender",
          "type": "address"
        },
        {
          "internalType": "uint256",
          "name": "_index",
          "type": "uint256"
        }
      ],
      "name": "getFund",
      "outputs": [
        {
          "internalType": "address",
          "name": "",
          "type": "address"
        },
        {
          "internalType": "address",
          "name": "",
          "type": "address"
        },
        {
          "internalType": "uint256",
          "name": "",
          "type": "uint256"
        },
        {
          "internalType": "uint256",
          "name": "",
          "type": "uint256"
        },
        {
          "internalType": "uint256",
          "name": "",
          "type": "uint256"
        },
        {
          "internalType": "uint256",
          "name": "",
          "type": "uint256"
        },
        {
          "internalType": "enum Tracking.ShipmentStatus",
          "name": "",
          "type": "uint8"
        },
        {
          "internalType": "bool",
          "name": "",
          "type": "bool"
        }
      ],
      "stateMutability": "view",
      "type": "function"
    },
    {
      "inputs": [
        {
          "internalType": "address",
          "name": "_sender",
          "type": "address"
        }
      ],
      "name": "getFundCount",
      "outputs": [
        {
          "internalType": "uint256",
          "name": "",
          "type": "uint256"
        }
      ],
      "stateMutability": "view",
      "type": "function"
    },
    {
      "inputs": [
        {
          "internalType": "address",
          "name": "_sender",
          "type": "address"
        },
        {
          "internalType": "uint256",
          "name": "_index",
          "type": "uint256"
        }
      ],
      "name": "startFund",
      "outputs": [],
      "stateMutability": "nonpayable",
      "type": "function"
    }
  ],
  "bytecode": "0x608060405234801561001057600080fd5b5060006001819055506117c1806100286000396000f3fe60806040526004361061007b5760003560e01c80636e4933951161004e5780636e4933951461011b57806388b22c24146101445780638bd99c4f14610188578063dceae3e1146101cc5761007b565b80631c02efc31461008057806327506f531461009c5780633ade3faa146100c75780633f936ff5146100f0575b600080fd5b61009a6004803603810190610095919061103b565b610209565b005b3480156100a857600080fd5b506100b1610674565b6040516100be91906112a4565b60405180910390f35b3480156100d357600080fd5b506100ee60048036038101906100e991906112c6565b6107fe565b005b3480156100fc57600080fd5b50610105610bd2565b6040516101129190611328565b60405180910390f35b34801561012757600080fd5b50610142600480360381019061013d9190611343565b610bd8565b005b34801561015057600080fd5b5061016b60048036038101906101669190611343565b610d8a565b60405161017f9897969594939291906113b0565b60405180910390f35b34801561019457600080fd5b506101af60048036038101906101aa9190611343565b610e49565b6040516101c39897969594939291906113b0565b60405180910390f35b3480156101d857600080fd5b506101f360048036038101906101ee919061142e565b610f57565b6040516102009190611328565b60405180910390f35b80341461024b576040517f08c379a0000000000000000000000000000000000000000000000000000000008152600401610242906114de565b60405180910390fd5b60006040518061010001604052803373ffffffffffffffffffffffffffffffffffffffff1681526020018673ffffffffffffffffffffffffffffffffffffffff16815260200185815260200160008152602001848152602001838152602001600060038111156102be576102bd6110ec565b5b81526020016000151581525090506000803373ffffffffffffffffffffffffffffffffffffffff1673ffffffffffffffffffffffffffffffffffffffff16815260200190815260200160002081908060018154018082558091505060019003906000526020600020906007020160009091909190915060008201518160000160006101000a81548173ffffffffffffffffffffffffffffffffffffffff021916908373ffffffffffffffffffffffffffffffffffffffff16021790555060208201518160010160006101000a81548173ffffffffffffffffffffffffffffffffffffffff021916908373ffffffffffffffffffffffffffffffffffffffff16021790555060408201518160020155606082015181600301556080820151816004015560a0820151816005015560c08201518160060160006101000a81548160ff02191690836003811115610415576104146110ec565b5b021790555060e08201518160060160016101000a81548160ff02191690831515021790555050506001600081548092919061044f9061152d565b919050555060026040518061010001604052803373ffffffffffffffffffffffffffffffffffffffff1681526020018773ffffffffffffffffffffffffffffffffffffffff16815260200186815260200160008152602001858152602001848152602001600060038111156104c7576104c66110ec565b5b815260200160001515815250908060018154018082558091505060019003906000526020600020906007020160009091909190915060008201518160000160006101000a81548173ffffffffffffffffffffffffffffffffffffffff021916908373ffffffffffffffffffffffffffffffffffffffff16021790555060208201518160010160006101000a81548173ffffffffffffffffffffffffffffffffffffffff021916908373ffffffffffffffffffffffffffffffffffffffff16021790555060408201518160020155606082015181600301556080820151816004015560a0820151816005015560c08201518160060160006101000a81548160ff021916908360038111156105dd576105dc6110ec565b5b021790555060e08201518160060160016101000a81548160ff02191690831515021790555050508473ffffffffffffffffffffffffffffffffffffffff163373ffffffffffffffffffffffffffffffffffffffff167fd28e516478782f1c723d2a9563d03b9bf15b755401c76e540edfa51613995ce486868660405161066593929190611575565b60405180910390a35050505050565b60606002805480602002602001604051908101604052809291908181526020016000905b828210156107f55783829060005260206000209060070201604051806101000160405290816000820160009054906101000a900473ffffffffffffffffffffffffffffffffffffffff1673ffffffffffffffffffffffffffffffffffffffff1673ffffffffffffffffffffffffffffffffffffffff1681526020016001820160009054906101000a900473ffffffffffffffffffffffffffffffffffffffff1673ffffffffffffffffffffffffffffffffffffffff1673ffffffffffffffffffffffffffffffffffffffff168152602001600282015481526020016003820154815260200160048201548152602001600582015481526020016006820160009054906101000a900460ff1660038111156107b5576107b46110ec565b5b60038111156107c7576107c66110ec565b5b81526020016006820160019054906101000a900460ff16151515158152505081526020019060010190610698565b50505050905090565b60008060008573ffffffffffffffffffffffffffffffffffffffff1673ffffffffffffffffffffffffffffffffffffffff16815260200190815260200160002082815481106108505761084f6115ac565b5b90600052602060002090600702019050600060028381548110610876576108756115ac565b5b906000526020600020906007020190508373ffffffffffffffffffffffffffffffffffffffff168260010160009054906101000a900473ffffffffffffffffffffffffffffffffffffffff1673ffffffffffffffffffffffffffffffffffffffff1614610918576040517f08c379a000000000000000000000000000000000000000000000000000000000815260040161090f90611627565b60405180910390fd5b6001600381111561092c5761092b6110ec565b5b8260060160009054906101000a900460ff1660038111156109505761094f6110ec565b5b14610990576040517f08c379a000000000000000000000000000000000000000000000000000000000815260040161098790611693565b60405180910390fd5b8160060160019054906101000a900460ff16156109e2576040517f08c379a00000000000000000000000000000000000000000000000000000000081526004016109d9906116ff565b60405180910390fd5b60028260060160006101000a81548160ff02191690836003811115610a0a57610a096110ec565b5b021790555060028160060160006101000a81548160ff02191690836003811115610a3757610a366110ec565b5b02179055504281600301819055504282600301819055506000826005015490508260000160009054906101000a900473ffffffffffffffffffffffffffffffffffffffff1673ffffffffffffffffffffffffffffffffffffffff166108fc829081150290604051600060405180830381858888f19350505050158015610ac1573d6000803e3d6000fd5b5060018360060160016101000a81548160ff02191690831515021790555060018260060160016101000a81548160ff0219169083151502179055508473ffffffffffffffffffffffffffffffffffffffff168673ffffffffffffffffffffffffffffffffffffffff167f406690381ece4bf2840035eb41d4b354b009993f874882ae1b9b4e37e1bc7cd48560030154604051610b5d9190611328565b60405180910390a38473ffffffffffffffffffffffffffffffffffffffff168673ffffffffffffffffffffffffffffffffffffffff167fd8d123777154196005388c5581d98b3523416fa17f7a83bf986aad28c8094afa83604051610bc29190611328565b60405180910390a3505050505050565b60015481565b60008060008473ffffffffffffffffffffffffffffffffffffffff1673ffffffffffffffffffffffffffffffffffffffff1681526020019081526020016000208281548110610c2a57610c296115ac565b5b90600052602060002090600702019050600060028381548110610c5057610c4f6115ac565b5b9060005260206000209060070201905060006003811115610c7457610c736110ec565b5b8260060160009054906101000a900460ff166003811115610c9857610c976110ec565b5b14610cd8576040517f08c379a0000000000000000000000000000000000000000000000000000000008152600401610ccf9061176b565b60405180910390fd5b60018260060160006101000a81548160ff02191690836003811115610d0057610cff6110ec565b5b021790555060018160060160006101000a81548160ff02191690836003811115610d2d57610d2c6110ec565b5b02179055508373ffffffffffffffffffffffffffffffffffffffff167f6b2968ffdc8f84f7e91a283e853814d4a42fe2257d97e06ab455d5803b515a648360020154604051610d7c9190611328565b60405180910390a250505050565b60006020528160005260406000208181548110610da657600080fd5b9060005260206000209060070201600091509150508060000160009054906101000a900473ffffffffffffffffffffffffffffffffffffffff16908060010160009054906101000a900473ffffffffffffffffffffffffffffffffffffffff16908060020154908060030154908060040154908060050154908060060160009054906101000a900460ff16908060060160019054906101000a900460ff16905088565b60008060008060008060008060008060008c73ffffffffffffffffffffffffffffffffffffffff1673ffffffffffffffffffffffffffffffffffffffff1681526020019081526020016000208a81548110610ea757610ea66115ac565b5b906000526020600020906007020190508060000160009054906101000a900473ffffffffffffffffffffffffffffffffffffffff168160010160009054906101000a900473ffffffffffffffffffffffffffffffffffffffff1682600201548360030154846004015485600501548660060160009054906101000a900460ff168760060160019054906101000a900460ff1698509850985098509850985098509850509295985092959890939650565b60008060008373ffffffffffffffffffffffffffffffffffffffff1673ffffffffffffffffffffffffffffffffffffffff168152602001908152602001600020805490509050919050565b600080fd5b600073ffffffffffffffffffffffffffffffffffffffff82169050919050565b6000610fd282610fa7565b9050919050565b610fe281610fc7565b8114610fed57600080fd5b50565b600081359050610fff81610fd9565b92915050565b6000819050919050565b61101881611005565b811461102357600080fd5b50565b6000813590506110358161100f565b92915050565b6000806000806080858703121561105557611054610fa2565b5b600061106387828801610ff0565b945050602061107487828801611026565b935050604061108587828801611026565b925050606061109687828801611026565b91505092959194509250565b600081519050919050565b600082825260208201905092915050565b6000819050602082019050919050565b6110d781610fc7565b82525050565b6110e681611005565b82525050565b7f4e487b7100000000000000000000000000000000000000000000000000000000600052602160045260246000fd5b6004811061112c5761112b6110ec565b5b50565b600081905061113d8261111b565b919050565b600061114d8261112f565b9050919050565b61115d81611142565b82525050565b60008115159050919050565b61117881611163565b82525050565b6101008201600082015161119560008501826110ce565b5060208201516111a860208501826110ce565b5060408201516111bb60408501826110dd565b5060608201516111ce60608501826110dd565b5060808201516111e160808501826110dd565b5060a08201516111f460a08501826110dd565b5060c082015161120760c0850182611154565b5060e082015161121a60e085018261116f565b50505050565b600061122c838361117e565b6101008301905092915050565b6000602082019050919050565b6000611251826110a2565b61125b81856110ad565b9350611266836110be565b8060005b8381101561129757815161127e8882611220565b975061128983611239565b92505060018101905061126a565b5085935050505092915050565b600060208201905081810360008301526112be8184611246565b905092915050565b6000806000606084860312156112df576112de610fa2565b5b60006112ed86828701610ff0565b93505060206112fe86828701610ff0565b925050604061130f86828701611026565b9150509250925092565b61132281611005565b82525050565b600060208201905061133d6000830184611319565b92915050565b6000806040838503121561135a57611359610fa2565b5b600061136885828601610ff0565b925050602061137985828601611026565b9150509250929050565b61138c81610fc7565b82525050565b61139b81611142565b82525050565b6113aa81611163565b82525050565b6000610100820190506113c6600083018b611383565b6113d3602083018a611383565b6113e06040830189611319565b6113ed6060830188611319565b6113fa6080830187611319565b61140760a0830186611319565b61141460c0830185611392565b61142160e08301846113a1565b9998505050505050505050565b60006020828403121561144457611443610fa2565b5b600061145284828501610ff0565b91505092915050565b600082825260208201905092915050565b7f5061796d656e7420616d6f756e74206d757374206d617463682074686520707260008201527f6963650000000000000000000000000000000000000000000000000000000000602082015250565b60006114c860238361145b565b91506114d38261146c565b604082019050919050565b600060208201905081810360008301526114f7816114bb565b9050919050565b7f4e487b7100000000000000000000000000000000000000000000000000000000600052601160045260246000fd5b600061153882611005565b91507fffffffffffffffffffffffffffffffffffffffffffffffffffffffffffffffff820361156a576115696114fe565b5b600182019050919050565b600060608201905061158a6000830186611319565b6115976020830185611319565b6115a46040830184611319565b949350505050565b7f4e487b7100000000000000000000000000000000000000000000000000000000600052603260045260246000fd5b7f496e76616c696420726563656976657200000000000000000000000000000000600082015250565b600061161160108361145b565b915061161c826115db565b602082019050919050565b6000602082019050818103600083015261164081611604565b9050919050565b7f46756e64206e6f7420696e207472616e7369742e000000000000000000000000600082015250565b600061167d60148361145b565b915061168882611647565b602082019050919050565b600060208201905081810360008301526116ac81611670565b9050919050565b7f46756e6420616c72656164792070616964000000000000000000000000000000600082015250565b60006116e960118361145b565b91506116f4826116b3565b602082019050919050565b60006020820190508181036000830152611718816116dc565b9050919050565b7f46756e6420616c726561647920696e207472616e7369742e0000000000000000600082015250565b600061175560188361145b565b91506117608261171f565b602082019050919050565b6000602082019050818103600083015261178481611748565b905091905056fea26469706673582212202511904aa8054225d2f73dedf19dc41f579585872baf5755f742b9539a10389b64736f6c63430008110033",
  "linkReferences": {},
  "deployedLinkReferences": {}
}